:020000040000fa
:080000000002040000000000f2
:020000040000fa
:040008004c030000a5
:020000040000fa
:04000c004c030000a1
:020000040000fa
:040010004c0300009d
:020000040000fa
:040014004c03000099
:020000040000fa
:040018004c03000095
:020000040000fa
:04001c004c03000091
:020000040000fa
:040020004c0300008d
:020000040000fa
:040024004c03000089
:020000040000fa
:040028004c03000085
:020000040000fa
:04002c004c03000081
:020000040000fa
:040030004c0300007d
:020000040000fa
:040034004c03000079
:020000040000fa
:040038004c03000075
:020000040000fa
:04003c004c03000071
:020000040000fa
:040040004c0300006d
:020000040000fa
:040044004c03000069
:020000040000fa
:040048004c03000065
:020000040000fa
:04004c004c03000061
:020000040000fa
:040050004c0300005d
:020000040000fa
:04005400f25c00005a
:020000040000fa
:04005800145d000033
:020000040000fa
:04005c004c03000051
:020000040000fa
:040060004c0300004d
:020000040000fa
:040064004c03000049
:020000040000fa
:040068004c03000045
:020000040000fa
:04006c004c03000041
:020000040000fa
:040070004c0300003d
:020000040000fa
:040074004c03000039
:020000040000fa
:040078004c03000035
:020000040000fa
:04007c004c03000031
:020000040000fa
:040080004c0300002d
:020000040000fa
:040084004c03000029
:020000040000fa
:040088004c03000025
:020000040000fa
:04008c004c03000021
:020000040000fa
:040090004c0300001d
:020000040000fa
:040094004c03000019
:020000040000fa
:040098004c03000015
:020000040000fa
:04009c004c03000011
:020000040000fa
:0400a0004c0300000d
:020000040000fa
:0400a4004c03000009
:020000040000fa
:0400a8004c03000005
:020000040000fa
:0400ac004c03000001
:020000040000fa
:0400b0004c030000fd
:020000040000fa
:0400b4004c030000f9
:020000040000fa
:0400b8004c030000f5
:020000040000fa
:0400bc004c030000f1
:020000040000fa
:0400c0004c030000ed
:020000040000fa
:0400c4004c030000e9
:020000040000fa
:0400c8004c030000e5
:020000040000fa
:0400cc004c030000e1
:020000040000fa
:0400d0004c030000dd
:020000040000fa
:0400d4004c030000d9
:020000040000fa
:0400d8004c030000d5
:020000040000fa
:0400dc004c030000d1
:020000040000fa
:0400e0004c030000cd
:020000040000fa
:0400e4004c030000c9
:020000040000fa
:0400e8004c030000c5
:020000040000fa
:0400ec004c030000c1
:020000040000fa
:0400f0004c030000bd
:020000040000fa
:0400f4004c030000b9
:020000040000fa
:0400f8004c030000b5
:020000040000fa
:0400fc004c030000b1
:020000040000fa
:040100004c030000ac
:020000040000fa
:040104004c030000a8
:020000040000fa
:040108004c030000a4
:020000040000fa
:04010c004c030000a0
:020000040000fa
:040110004c0300009c
:020000040000fa
:040114004c03000098
:020000040000fa
:040118004c03000094
:020000040000fa
:04011c004c03000090
:020000040000fa
:040120004c0300008c
:020000040000fa
:040124004c03000088
:020000040000fa
:040128004c03000084
:020000040000fa
:04012c004c03000080
:020000040000fa
:040130004c0300007c
:020000040000fa
:040134004c03000078
:020000040000fa
:040138004c03000074
:020000040000fa
:04013c004c03000070
:020000040000fa
:040140004c0300006c
:020000040000fa
:040144004c03000068
:020000040000fa
:040148004c03000064
:020000040000fa
:040208004c030000a3
:020000040000fa
:04020c004c0300009f
:020000040000fa
:040210004c0300009b
:020000040000fa
:040214004c03000097
:020000040000fa
:040218004c03000093
:020000040000fa
:04021c004c0300008f
:020000040000fa
:040220004c0300008b
:020000040000fa
:040224004c03000087
:020000040000fa
:040228004c03000083
:020000040000fa
:04022c004c0300007f
:020000040000fa
:040230004c0300007b
:020000040000fa
:040234004c03000077
:020000040000fa
:040238004c03000073
:020000040000fa
:04023c004c0300006f
:020000040000fa
:040240004c0300006b
:020000040000fa
:040244004c03000067
:020000040000fa
:040248004c03000063
:020000040000fa
:04024c004c0300005f
:020000040000fa
:040250004c0300005b
:020000040000fa
:040254004c03000057
:020000040000fa
:040258004c03000053
:020000040000fa
:04025c004c0300004f
:020000040000fa
:040260004c0300004b
:020000040000fa
:040264004c03000047
:020000040000fa
:040268004c03000043
:020000040000fa
:04026c004c0300003f
:020000040000fa
:040270004c0300003b
:020000040000fa
:040274004c03000037
:020000040000fa
:040278004c03000033
:020000040000fa
:04027c004c0300002f
:020000040000fa
:040280004c0300002b
:020000040000fa
:040284004c03000027
:020000040000fa
:040288004c03000023
:020000040000fa
:04028c004c0300001f
:020000040000fa
:040290004c0300001b
:020000040000fa
:040294004c03000017
:020000040000fa
:040298004c03000013
:020000040000fa
:04029c004c0300000f
:020000040000fa
:0402a0004c0300000b
:020000040000fa
:0402a4004c03000007
:020000040000fa
:0402a8004c03000003
:020000040000fa
:0402ac004c030000ff
:020000040000fa
:0402b0004c030000fb
:020000040000fa
:0402b4004c030000f7
:020000040000fa
:0402b8004c030000f3
:020000040000fa
:0402bc004c030000ef
:020000040000fa
:0402c0004c030000eb
:020000040000fa
:0402c4004c030000e7
:020000040000fa
:0402c8004c030000e3
:020000040000fa
:0402cc004c030000df
:020000040000fa
:0402d0004c030000db
:020000040000fa
:0402d4004c030000d7
:020000040000fa
:0402d8004c030000d3
:020000040000fa
:0402dc004c030000cf
:020000040000fa
:0402e0004c030000cb
:020000040000fa
:0402e4004c030000c7
:020000040000fa
:0402e8004c030000c3
:020000040000fa
:0402ec004c030000bf
:020000040000fa
:0402f0004c030000bb
:020000040000fa
:0402f4004c030000b7
:020000040000fa
:0402f8004c030000b3
:020000040000fa
:0402fc004c030000af
:020000040000fa
:040300004c030000aa
:020000040000fa
:040304004c030000a6
:020000040000fa
:040308004c030000a2
:020000040000fa
:04030c004c0300009e
:020000040000fa
:040310004c0300009a
:020000040000fa
:040314004c03000096
:020000040000fa
:040318004c03000092
:020000040000fa
:04031c004c0300008e
:020000040000fa
:040320004c0300008a
:020000040000fa
:040324004c03000086
:020000040000fa
:040328004c03000082
:020000040000fa
:04032c004c0300007e
:020000040000fa
:040330004c0300007a
:020000040000fa
:040334004c03000076
:020000040000fa
:040338004c03000072
:020000040000fa
:04033c004c0300006e
:020000040000fa
:040340004c0300006a
:020000040000fa
:040344004c03000066
:020000040000fa
:040348004c03000062
:020000040000fa
:10040000cfa221000e7f22000e0188000000000014
:10041000000020000000e000020032000001200087
:10042000200288000c00070060ec2600010020007c
:1004300011000700000020000000e0000200320070
:100440000000020000000000e07002000000000058
:100450000040da000000fe004440a900002b20000c
:100460000000e0000300320000002000a00188002e
:100470004440a80000000600910188008000780038
:100480000000eb0015003700e280400032a0b4000d
:100490009101ba00e280400032a0b4009102ba009b
:1004a000e280400032a0b4000002eb00472bde00e7
:1004b000f507b200602ce10004003a000059eb009f
:1004c0008301e900fdff3e00040037006128e100e0
:1004d000010032000082eb000b00070011c3ba00dc
:1004e0001101ba000604e00003003a000200e00037
:1004f000e5ff3a0000000600f607b200960188000a
:1005000082007800f5ff37003159ba008301e90015
:100510000c0032002159ba008301e90008003200c2
:100520000400e00003003a00e280400032a0b40082
:10053000f5ff370011d9ba008301e900faff3a004c
:100540008100e800e180400032a0b4000000060015
:10055000000000000000000000000000000000009b
:10056000000000000000000000000000000000008b
:10057000000000000000000000000000000000007b
:10058000000000000000000000000000000000006b
:10059000000000000000000000000000000000005b
:1005a000000000000000000000000000000000004b
:1005b000000000000000000000000000000000003b
:1005c000000000000000000000000000000000002b
:1005d000000000000000000000000000000000001b
:1005e000000000000000000000000000000000000b
:1005f00000000000000000000000000000000000fb
:1006000000000000000000000000000000000000ea
:1006100000000000000000000000000000000000da
:1006200000000000000000000000000000000000ca
:1006300000000000000000000000000000000000ba
:1006400000000000000000000000000000000000aa
:10065000000000000000000000000000000000009a
:10066000000000000000000000000000000000008a
:10067000000000000000000000000000000000007a
:10068000000000000000000000000000000000006a
:1006900000000000000000000040da000000fe0042
:1006a00003f0a200889fbe008a9fbe008c1f7800c6
:1006b0004a010700510133006450e1004f0032004d
:1006c0006420e1005200320003826c0007003b000e
:1006d0000905d0000306d000820f54000c065d000f
:1006e0000200390002003200890178000306780018
:1006f0008582550004003d000003fd008103fd00dc
:100700008502ea008b854200840f720002003b00e4
:1007100060001000e08018006011b8000005eb00d8
:100720007a28e1000a00390006007800c75ddd0084
:10073000f707b200878075002d00370082817100b5
:100740000a017800610560008180d1000080d3003b
:100750008502e900f9ff3b00060440008784480059
:1007600002003b0060041400e0841c000988a30020
:10077000070032008a81710082817100610164008a
:100780008904d1000884d3008b05e80017003700e6
:100790000978a30013003a000b00e00013003400b6
:1007a0008b05e9000804440089844c000a44740065
:1007b0000978a3000d003a000b00e00007003400a8
:1007c0008b05e9000804440089844c0001003a00cc
:1007d0000b0020000978a300f7ff32000001eb00b6
:1007e00002003700828171000a017800c000070012
:1007f0000cf0a70001f0a000090137006420e1001f
:1008000002003a00838f6c00090133000801be002a
:100810000200be0002013700889fbe008a9fbe0012
:100820008c1f7800ed000700f400330003866c0095
:100830006450e1002e0032006420e10033003200f9
:100840006150e1002f0032006120e10031003200f0
:1008500085855500eb07b000090020000804200042
:10086000050037000804440089844c000a00310068
:100870000603430087834b000001530081815b0026
:10088000f8ff33000203be000800a0000804440083
:1008900089844c00f6ff3900c639dd0083017300fe
:1008a00001003200130020008904d1000884d30025
:1008b0000998a300050032000800a7000300a0006b
:1008c0008904d1000884d3008b05e8008904d10095
:1008d0000884d3000001eb000281d20084000700ed
:1008e00001f0a1000cf0a70001f0a000cc0037003f
:1008f0006420e100ce0032000801be000200be000c
:10090000f7ff37006120e100c90032006000b80045
:10091000f3ff37000000200001f82700f0ff370048
:10092000140020000e023700f4ff2f000c023700e5
:100930000003be00940007006011b8000470a70017
:1009400007f0a10007f8a30017003a006509b100fd
:100950000d0032000d003500860220000628e1005f
:1009600003003500030028006000b8000200050005
:100970000000400081804800020149008381490055
:100980008502e900faff3a0000000600f88f4200f5
:10099000050034008100d1000080d3008502e8000a
:1009a000fcff3a00000006006011b8008000eb0078
:1009b000000005000001be00730007000470a700de
:1009c00003f0a10003f8a30013003a006509b10089
:1009d00010003200090035006928e10002003500ee
:1009e0000100280000000500000040008180480050
:1009f0008502e900fcff3a0000000600f88f420083
:100a0000050035008100d1000080d3008502e80098
:100a1000fcff3a00000006008000eb00000005002b
:100a20004f89de0082017800e8013700889fbe0010
:100a30008a9fbe000082700004027100048271006f
:100a4000260032000004be000200be006011b800a3
:100a50006b092000950220000182cf000a003900b6
:100a60000541b1000082cf00070039000541b10007
:100a70000982cf00040039000541b1000882cf008f
:100a8000010039000541b100054252001200320058
:100a90000a003b0082817100610164008100d10085
:100aa0000080d3008984d3000884d3008b05e8003c
:100ab0000442e800f7ff3a0007003700080444004a
:100ac00089844c0000004800818048008b05e900c3
:100ad0000442e900f9ff3a00050007004f05be0097
:100ae0004f04be00000006006011b800cfff3700c1
:100af00081002000618055000b003d000b002000ac
:100b000061fe2f000100e1001d00340082817100b0
:100b1000610164008904d1000884d3000000e8006a
:100b2000faff3a00710020006100640003007000c9
:100b3000020060000900320061044400e0844c00bf
:100b40000988a500050032008b05e8006808e1006f
:100b500002003a008904d1000884d300f20f20007b
:100b60000258e10005003d00c75ddd00f907b20055
:100b70008980750008007800000006000bf8270047
:100b80008b00780000000500c70ade00f107b20004
:100b9000f50fb20008003200e1cf4200020032003f
:100ba0000170a00024000500810f700001003200d8
:100bb0000408050044000500810f700002003a009f
:100bc000140005008502e9000000400081c04800d3
:100bd000fcff3b000170a000240005000004be00e3
:100be000e9ff07000003be000405be000200be00ce
:100bf000e5ff0700844f7500000006000200be00fc
:100c00006450e100050036006420e1000200360077
:100c10000968a30001003a000800be000160a000be
:100c20004f0678004f05be004f04be0000000600ce
:100c3000f0ff2f00f1ff2700f9ff3700889fbe006b
:100c40008a9fbe008c1f7800e4ff0700ebff330093
:100c500003866c006450e100240032006420e1004f
:100c6000270032006150e100220032006120e100e3
:100c7000210032008b854200eb07b1000134b8003f
:100c8000003ab8000804420089844a00013ab800da
:100c90000030b8008880400009014a000400330099
:100ca0000000400081804800020149008b05e900f6
:100cb000c909dd008301700001003200130020002b
:100cc000c814de004814dd004709de001200b2003f
:100cd000c808de000884700085ff070001f0a1004d
:100ce0000cf0a70001f0a000cdff37006120e1006b
:100cf000cfff32000801be000200be00f7ff370040
:100d00006150e100fcff3a00c9ff37006022b800e3
:100d1000060220000000d0008180d2000482d200b0
:100d20008582d2000000a0000202520083825a0095
:100d3000030031000202420083824a000000a10049
:100d40000603e900f3ff3a0000000600efff07008a
:100d50000400be0000000600889fbe008a9fbe00ff
:100d600030044200b0844a0030054b0090854b00af
:100d70006000b1000898be000a90be000440e10087
:100d800005c8e10006d0e10007d8e100020031000b
:100d9000680040001008e8004f05be004f04be0088
:100da00000000600889fbe008a9fbe003004be007f
:100db0002005be000418540005985c0006185d006c
:100dc00007985d00110020000440e10005c8e10023
:100dd00006d0e10007d8e100010039008000eb00f7
:100de000108810004f05be004f04be000000060032
:100df0001200fa00889fbe008a9fbe008c9fbe0032
:100e0000e0b79f00f1b79f0082bf9f0093bf9f0094
:100e10000605be000404be000000eb00d0b79f0032
:100e2000c0b79f00b0b79f00a0b79f0090b79f00ca
:100e30000006eb005fb19700cfb097008201410040
:100e40003fb097000200e00004003d0037000700bb
:100e50007e805700c0ff0700030037003300070003
:100e60007e805700cfff0700dfb697000d00e0003f
:100e70000c0035006fb29700ffb297000fbb9700d0
:100e80009fbb970010002000010020006011b800f7
:100e90000002720081827200020373008383730078
:100ea0001b0007000c06e80001042000810f56001b
:100eb000e0ff3a000d00e00004003d000802be0023
:100ec0000a03be007e805700a3ff07005fa89700bb
:100ed0000000e00005003a001fb29700afb2970093
:100ee0003fb39700cfb39700090007006fb097009a
:100ef000ffb097000fb997009fb997004f06be004b
:100f00004f05be004f04be000080fa00000006003e
:100f10000100070000000600a4b79f00b5b79f00be
:100f2000c6b79f00d7b79f00000006004f09de003c
:100f300082817100b3b79f004f01de0081804000c5
:100f400082807000a1b79f008fb097004f09de002c
:100f5000000040000200700090b79f007fa897003b
:100f60004f01de00818040008280700081b79f00c9
:100f70000d0007004f3ade00000040000400700042
:100f8000f0af9f00080007000402420085824a007b
:100f900006034b0087834b00dfff07000802be00fb
:100fa0000a03be00000006002fb29700bfb29700f0
:100fb0004fb39700dfb3970000000600881f78004a
:100fc00018002000881f780089ff07008f87e9003c
:100fd0004f04780000000600801feb0084ff07002c
:100fe0008f87e90000000600889fbe008a9fbe0030
:100ff000e00f5000e08f5800e00f5900e08f5900db
:101000000c003d006044b8006055b800000054007a
:1010100081805c0002015d0083815d00180020007a
:101020001500070008003d00180007000004eb0051
:10103000050037000004eb000f00070002003d0030
:101040001200070018002000dcff07000800e00085
:10105000060032006022b8006033b8000000520081
:1010600081805a0002015b0083815b004f05be0056
:101070004f04be0000000600e00f5200e08f5a004f
:10108000e00f5b00e08f5b00000006006044b800ea
:101090006055b8000402540085825c0006035d00c0
:1010a00087835d0000000600889fbe008a9fbe0007
:1010b0008c1f7800e00f5000e08f5800e00f5900bf
:1010c000e08f59000d003d006044b8006055b80045
:1010d0000000540081805c0002015d0083815d009e
:1010e0001c0020000820e10009a8e1000ab0e1008e
:1010f0000bb8e1000d003d00080037000006eb00d2
:10110000e00f5200e08f5a00e00f5b00e08f5b00c1
:1011100006003d006044b8006055b8000402540069
:1011200085825c0006035d0087835d00aaff0700df
:101130000c00e000060032006022b8006033b80006
:101140000000520081805a0002015b0083815b0035
:101150004f0678004f05be004f04be000000060099
:10116000889fbe008a9fbe00841f78009bfe0700f8
:101170004f00780011003300f0ff2f00838f6c00c8
:1011800006003b00040565000a00a70008003700c0
:1011900009f0a6001000200008003700820f54005c
:1011a000838f5c00030039001000200001003e0026
:1011b0000000200009f0a7000000ea004f05be0073
:1011c0004f04be000000e00000000600881f780009
:1011d000030478000300e00007003d0060001000f9
:1011e000e080180060011900e081190002003b0056
:1011f00001f02d00030037000cfe070008f0a700e7
:0c12000001f0a0004f0478000000060080
:020000040000fa
:10120c000d0a00002800000078000000293e0000b4
:10121c000008000020080000000000002e20000044
:10122c0000200000004300006c7500007463000097
:10123c006820000064690000736500006e670000a0
:10124c00616700006564000021210000210000009e
:10125c00546f000020660000696e00006973000086
:10126c00682000007365000074750000702c00008d
:10127c00207300007461000072740000207500007f
:10128c00702000007468000065200000706f000082
:10129c00776500007220000073750000707000000c
:1012ac006c69000065730000207700006974000011
:1012bc0068200000636f00006d6d0000616e00001f
:1012cc006420000027570000270d00000a000000d2
:1012dc00427500007320000050690000726100002c
:1012ec0074650000207600003300000020630000cd
:1012fc006c6f00006e650000207700002f6400000a
:10130c006966000066650000726500006e7400007e
:10131c002050000049430000004300006f6d0000a6
:10132c006d7500006e6900007479000020460000a5
:10133c00697200006d77000061720000652000008a
:10134c00763700002e300000202d000020670000b2
:10135c006f6f00002e6700006c2f000067430000c9
:10136c007a5100006e570000200000002028000079
:10137c0032340000464a0000363400004741000079
:10138c00303000000034000020000000322000004b
:10139c000041000033000000423400000042000015
:1013ac003500000042380000005500004e4b000094
:1013bc000029000000490000090000004f0900004e
:1013cc0000480000090000004c0900000045000026
:1013dc006e740000657200002072000061770000de
:1013ec0020760000616c000075650000206600002e
:1013fc006f7200002042000052470000003e0000c7
:10140c00001b00005b440000001b00005b000000a0
:10141c00440000001b5b0000430000001b5b00004d
:10142c00324b00000d000000430000001b5b00006d
:10143c003244000000570000617200006e69000029
:10144c006e6700003a2000006e6f000020760000ee
:10145c006f6c00007461000067650000206f000075
:10146c006e20000056700000756c00006c7500005a
:10147c0070200000706900006e000000203d00002c
:10148c0020000000436c00007574000063680000cd
:10149c00206500006e670000616700006564000055
:1014ac002121000021000000565200004547000099
:1014bc00207400006f6f0000206c00006f7700003c
:1014cc002c20000069730000207400006865000087
:1014dc00726500002061000020730000686f00003e
:1014ec00727400003f0000002e2000003c00000041
:1014fc000041000052540000310000001434000080
:10150c00040d00008206000040030000a001000052
:10151c00cf0000007f0000006700000044000000c6
:10152c002200000000000000000000002c01000060
:10153c00000000005802000000000000b004000091
:10154c00000000006009000000000000c012000054
:10155c000000000080250000000000004038000062
:10156c0000000000004b0000000000008070000034
:10157c00000000000096000000000000c0da00002f
:10158c000000000000e100000000000000c20000ac
:10159c000100000000f400000100000000e8000061
:1015ac000300000014340000040d0000820600004b
:1015bc0040030000a0010000cf0000006700000005
:1015cc0044000000220000007f00000030300000ca
:1015dc00302c0000003000003000000030620000b1
:1015ec000000000014340000040d0000820600000e
:1015fc0040030000a0010000cf00000067000000c5
:10160c00440000002200000030780000303100005f
:10161c003233000034350000363700003839000012
:10162c0041420000434400004546000020480000b1
:10163c007a000000467200006571000075650000bc
:10164c006e63000069650000732000003c20000000
:10165c00314800007a200000617200006520000013
:10166c006e6f000074200000737500007070000035
:10167c006f72000074650000642e00000000000012
:10168c00436f0000756c0000646e0000277400004e
:10169c00206b000065650000702000007570000074
:1016ac000000000053500000493100000000000011
:1016bc00181c00001d0300000b1300001b00000091
:1016cc00181c00001d000000314100004c530000ac
:1016dc0001420000507600003300000021000000a1
:1016ec000010000000230000000f0000424000002a
:1016fc00400500004102000000000000002900002d
:10170c00002000005700000020520000004900009b
:10171c0032430000310000000808000008080000f7
:10172c00080000000000000042420000494f000089
:10173c003100000052410000573100000000000051
:10174c00003500003f620000610000004f430000c4
:10175c004431000000000000000000000000000008
:020000040000fa
:10176c00889fbe008a9fbe008c1f780013c4800027
:10177c0003007800f007b20001802100614078007e
:10178c00f1ccb30081404000e8cf50001a003e007d
:10179c000000fb000003b1008300e800f107b20079
:1017ac000280210062c1780004cdb30004424100e4
:1017bc0011002000e94f520078003e00f80720008d
:1017cc000780210006cdb3006a02b9000200fb00bd
:1017dc00040040000003b1008100e80003814000d8
:1017ec00080161006741790006424100e94f52004f
:1017fc00f5ff36006900370001c3b300814f50007c
:10180c0061003a000300e800f007b20001802100fb
:10181c006141780020c6b300804f51000b003a00a4
:10182c000380e800f007b2000180210061417800dc
:10183c0004cdb300044241000000eb002100200065
:10184c00e14f5200050036005400370020c4b300ad
:10185c00804f510010003a00f1ff3700f7072000cd
:10186c000680210005cdb300000040000201fb0002
:10187c00020040000003b1008100e8000381400039
:10188c00070161006641790005424100e14f5200b9
:10189c00f5ff36004100370080c7b300804f510080
:1018ac000a00320080c5b300804f51001f003a007f
:1018bc00090037004400dd000003b1000201fb0009
:1018cc00020040008100e8000b0037000000eb0034
:1018dc0021002000020037000000eb002100200056
:1018ec00f90720000780210008cdb300facbb30024
:1018fc000bc2b300fcc9b3000382400009026200b2
:10190c0067417a0088424100e9cf5200e9ff360076
:10191c008a424100e5cf5200280036000c434100ba
:10192c00e54f5300250036001c00370004cdb300f2
:10193c00044241000000eb0011002000e94f52006e
:10194c0016003e000200fb000003b100f807200067
:10195c000780210006cdb3006a02b9000200fb002b
:10196c00040040000003b1008100e8000381400046
:10197c00080161006741790006424100e94f5200bd
:10198c00f5ff36000500370011c0b3004088210078
:10199c00014878000000eb000400370012c48000fe
:1019ac0082804000f107b20011c488004f06780015
:1019bc004f05be004f04be00000006000b41710035
:1019cc0082737a004400dd007005b1000201fb0057
:1019dc0002004000bbff3700881f780011c4800054
:1019ec000100e800f007b20002802100e24178001b
:1019fc0010002000a2c3b30082cf510009003a00ae
:101a0c008180e800f80720008880600011c48800fd
:101a1c0053ff070011c480008100e90008846000b6
:101a2c0018c488004f04780000000600881f780056
:101a3c0011c480000100e800f007b2000280210010
:101a4c00e24178000000eb00b2c3b30082cf51003a
:101a5c0009003a008180e800f807200088806000c7
:101a6c0011c488003eff070011c480008100e9000a
:101a7c000884600018c488004f0478000000060039
:101a8c0012c480000201e800f207b20000802100bd
:101a9c00e040790080c7b30080cf500003003a00cb
:101aac0012c4880010c0b3001200370040c6b30047
:101abc0080cf500003003a0012c4880020c0b3004d
:101acc000c00370020c6b30080cf500003003a0052
:101adc0012c4880030c0b300060037000040eb0091
:101aec0073c7b30083cf500002003a0012c48800c1
:101afc0040c0b3000000060010c48000018021002b
:101b0c006141780001c2b300814f510009003a00d5
:101b1c00f407200003802100014178000000e80058
:101b2c0004006000e340780082cf5000fbff3200dd
:101b3c0010c4880000000600f0874700889fbe0094
:101b4c008a9fbe008c9fbe008e1f7800f0b79f004e
:101b5c00e1b79f00d2b79f00030778000acdb3000e
:101b6c00dbc2b3008bf79f008dc7b30060902800d9
:101b7c00325b020000000000ffb097000100e000a3
:101b8c0004003d00a0902800325b02000000000021
:101b9c00030037006fe89700f059020000000000c6
:101bac00c0902800325b0200000000000006eb0031
:101bbc008004eb00c85902000000000000447800cb
:101bcc00ed4f50004000320005003c00e84f500043
:101bdc0008003200ea4f500025003a003a00370066
:101bec008b4f5000150032008d4f500020003a00f2
:101bfc001d0037000900e000050032008904e900ef
:101c0c00f0902800325b020000000000e9ff370072
:101c1c000c00e00005003200f0902800325b02005e
:101c2c00000000000006eb00e2ff370070c0b300bc
:101c3c00da59020000000000deff37000900e00066
:101c4c0005003a000ff09700da590200000000007e
:101c5c001c002000d7ff370070c0b300da59020017
:101c6c0000000000d3ff37000e00e00036003a0001
:101c7c000a404000e94f50000f003e00e38f540033
:101c8c000500340070c0b300da59020000000000f7
:101c9c0049002000c7ff370008407800da590200dd
:101cac0000000000884078007c80570001f07c0028
:101cbc008904e800bfff370070c0b300da59020096
:101ccc0000000000bbff370030912800125b0200bf
:101cdc00000000000900e0001f0032000900e900cc
:101cec008000eb00080033007c8057008904400022
:101cfc006a09b900b000fb000103b100828040000a
:101d0c00890f5000faff3a006fb09700810f500016
:101d1c0008003c005fb09700810f500005003500b3
:101d2c000c00e0000b0032000100ea00f0b79f004d
:101d3c0009003700b101200080ec20000a6e02007f
:101d4c000000000089ff37008080eb00f1b79f0096
:101d5c0001003700f1b79f007fb097004f07780064
:101d6c004f06be004f05be004f04be000f01b10070
:101d7c00000006000e00fa00889fbe008a9fbe007d
:101d8c008c9fbe0010c480000004e900f807b2006c
:101d9c001d002000880f50002a003200098021000d
:101dac00fb07200069407c000004e00020003a00a2
:101dbc000806e8000b06660069407e000004e0009f
:101dcc001b0032000d407800f059020000000000aa
:101ddc0040912800325b02000000000069407e0048
:101dec000004e000080032000885e800da5902001f
:101dfc00000000000b006500694078000a05e8004f
:101e0c000004e000f9ff3a000d8046000c01780058
:101e1c00fa805700823078008d06e800e78f560074
:101e2c000800320030912800125b02000000000014
:101e3c000804e9000b04640010c48000800f5400f7
:101e4c00d8ff3a0070912800125b020000000000dd
:101e5c0071002000107420000a6e020000000000c7
:101e6c00130020000d017800830078000000eb00c7
:101e7c0031ff07008000e800e18f50000b003600b6
:101e8c0000004000fa805700e1027800050078005d
:101e9c00f007b20001802100e14078000000eb0067
:101eac000104e00006003a001200370030912800cf
:101ebc00125b020000000000100020001c00370024
:101ecc0006c480000000eb00f30720000280210014
:101edc00060240000302620001717a000000e80073
:101eec008500400083806000e2c078000104e000bf
:101efc00f7ff3a0002c480000201e900f10720005c
:101f0c000101610012c488000281e8000000410058
:101f1c000100600000c488000000e900810060003e
:101f2c000041eb000080210002f078000000eb0083
:101f3c004f06be004f05be004f04be000080fa00e5
:101f4c0000000600889fbe008a9fbe008c1f780090
:101f5c0010c480000000e800f007b20010c4880034
:101f6c00e5fe0700fefd07000000e00042003a001d
:101f7c000004eb00090320000a8d21000840e80052
:101f8c00f05902000000000040912800325b020072
:101f9c000000000009c0b9008002b0000a00400037
:101fac00125b0200000000000804e800e40f54007b
:101fbc00f2ff3a0071012000606d20000a6e0200f1
:101fcc0000000000408821000048eb0013002000b6
:101fdc00420020008300780003007800d6fe070042
:101fec008004e9000000e800e10f500005003e000d
:101ffc00e1002000d06e20000a6e020000000000fc
:10200c003b003700489e2100180078000b0320008d
:10201c000b80b9002002b0000c8d21006c00780000
:10202c0000000100ca6a020000000000090c7800e0
:10203c000bcdb9007e0545006c007d000000010051
:10204c0090912800125b0200000000000900e000e3
:10205c0004003200c222a800e0922800125b0200a9
:10206c000000000051002000505720000a6e0200b2
:10207c00000000001e0037000004e900e30f5400cc
:10208c0017003c00499e2100190078000a0320002b
:10209c000a80b9002002b0000b8d21006b00780083
:1020ac0000000100ca6a020000000000880c7800e1
:1020bc000ac0b9007e0540006b007d0000000100e5
:1020cc000800e00001003200c222a80051002000ec
:1020dc00505720000a6e0200000000000400370078
:1020ec0051012000c07220000a6e020000000000a6
:1020fc0000c480000000e900f007b20010c48800a2
:10210c004f0678004f05be004f04be0000000600cd
:10211c00889fbe008a9fbe00e0962800325b0200ba
:10212c0000000000e0c2b300da5902000000000019
:10213c00a09e210010407800da5902000000000037
:10214c0031cf8000f0442000808f500003003a0013
:10215c00c0972800325b020000000000309128007c
:10216c00125b02000000000030992800325b020074
:10217c0000000000b0c5b300da59020000000000f6
:10218c00190020000004eb000a0320000b8d210035
:10219c00020037000804e8008904e8000800e000a9
:1021ac006b00320000c2b300da59020000000000dc
:1021bc000ac0b9008002b0000b004000325b020084
:1021cc0000000000e38f5400f2ff3600d0c5b300ce
:1021dc00da59020000000000d1002000a08020008d
:1021ec00ae6d020000000000a1bf2a000000eb0051
:1021fc00de58020000000000000478004840de00b9
:10220c00f059020000000000e0c2b300da590200ed
:10221c000000000008407800f059020000000000a7
:10222c0030912800125b02000000000061002000c9
:10223c0030762000ae6d020000000000689e210088
:10224c0018007800665c020000000000710020009d
:10225c0010ec2000ae6d02000000000040cf8000aa
:10226c00665c020000000000c09b2800325b02008c
:10227c0000000000f0442000980f100004003a0009
:10228c00909c2800325b0200000000000300370025
:10229c00c09c2800325b02000000000040cf800090
:1022ac0021042300810f50001000320004003e0076
:1022bc00f103b100810f500018003a0007003700fd
:1022cc0031042300810f50000c003200e3804000e9
:1022dc00810f500011003a000c003700f09c2800d0
:1022ec00325b0200000000000f003700209d280028
:1022fc00325b0200000000000b003700509d2800ec
:10230c00325b02000000000007003700809d2800af
:10231c00325b02000000000003003700b09d280073
:10232c00325b020000000000f09d2800125b0200ee
:10233c0000000000e1012000907620000a6e0200ef
:10234c00000000004f05be004f04be000000060058
:10235c000ac0b9008002b0000b004000325b0200e2
:10236c00000000008bff3700c802b60004003200ea
:10237c00109e2800325b02000000000003003700b2
:10238c00409e2800325b02000000000000000600a6
:10239c00ca02b60004003200709e2800325b0200b4
:1023ac000000000003003700a09e2800325b0200f2
:1023bc000000000000000600a100200040072100e2
:1023cc000a6e02000000000061042000c00c210015
:1023dc000a6e020000000000a1012000e0072100ad
:1023ec00ae6d0200000000000003200021cf800031
:1023fc000088b9004002b000018d21006100780016
:10240c0000000100a100200080092100ae6d020037
:10241c000000000000402000d3ff07000010200047
:10242c00d1ff070000202000cfff07000004200090
:10243c00cdff070000082000cbff070030912800db
:10244c00125b02000000000041002000201121005e
:10245c00ae6d02000000000021e3a800a0002000e7
:10246c00026b0200000000003c5a02000000000059
:10247c0011002000b0372000ae6d020000000000fb
:10248c0090c0b300da590200000000009000200058
:10249c00026b0200000000003c5a02000000000029
:1024ac0011002000b0372000ae6d020000000000cb
:1024bc0090c0b300da59020000000000c0002000f8
:1024cc00026b0200000000003c5a020000000000f9
:1024dc0011002000b0372000ae6d0200000000009b
:1024ec0090c0b300da59020000000000b0002000d8
:1024fc00026b0200000000003c5a020000000000c9
:10250c0011002000b0372000ae6d0200000000006a
:10251c0090c0b300da5902000000000021e3a900ca
:10252c00004020009aff07000010200098ff0700d1
:10253c000020200096ff07000004200094ff0700f5
:10254c000008200092ff070030912800125b020067
:10255c0000000000000006005100200050922000f6
:10256c00ae6d020000000000c1bf2a000000eb00ad
:10257c00de58020000000000665c02000000000053
:10258c0061002000a0922000ae6d0200000000004f
:10259c00e1bf2a000000eb00de5802000000000042
:1025ac00665c02000000000030912800125b020003
:1025bc0000000000c1002000707820000a6e0200ac
:1025cc00000000007cff0700c202ab0005003200d7
:1025dc0011012000a0622000ae6d0200000000007e
:1025ec000400370021012000b0632000ae6d020012
:1025fc0000000000c0c2b300da5902000000000065
:10260c0000c2b300da59020000000000cb62ab003c
:10261c000500320041012000705d2000ae6d02000b
:10262c00000000000400370051012000205c200055
:10263c00ae6d020000000000c0c2b300da59020007
:10264c000000000000c2b300da59020000000000d4
:10265c00809c210010407800704060000500320022
:10266c0021022000307920000a6e020000000000d8
:10267c0004003700e1012000507b20000a6e0200ac
:10268c0000000000809c2100104078006840600031
:10269c0005003a00b1012000307d2000ae6d020033
:1026ac000000000004003700c1012000e07e200083
:1026bc00ae6d020000000000c0c2b300da59020087
:1026cc000000000000c2b300da5902000000000054
:1026dc00b1012000b01a2100ae6d02000000000014
:1026ec00709b210010407800f0590200000000009f
:1026fc0030912800125b020000000000809c210039
:10270c001040780063406000e14f500005003a0033
:10271c0051012000005920000a6e02000000000048
:10272c000400370061012000a05720000a6e02004f
:10273c00000000000003200021cf80000088b900b9
:10274c006002b000018d21006100780000000100e2
:10275c00c1002000707820000a6e0200000000000a
:10276c000000060010c480000000e800f007b20072
:10277c0010c48800e0fc0700f9fb07008000e900aa
:10278c00e38f500003003e00219e21008008e900e9
:10279c000d003700408821000048eb00210220008a
:1027ac00708120000a6e0200000000008001eb0026
:1027bc00420020001100200010002000defc070069
:1027cc00219e21008008e900210120009083200037
:1027dc000a6e02000000000000000600881f78004e
:1027ec0010c480000000e800f007b20010c488009c
:1027fc00c1fc0700dafb07000040e900e94f50007c
:10280c0003003e00019e2100804878000d00370037
:10281c00408821000048eb00d10820006087200090
:10282c000a6e0200000000008001eb00a2002000f4
:10283c001100200090002000bffc0700019e210029
:10284c008048e9000044eb00009e210091c0b300d9
:10285c0090cf100010003a00a7fc0700c0fb070047
:10286c00004478000804e0000b003a004088210086
:10287c000048eb00d09e2800125b02000000000014
:10288c008001eb00f2ff27008000eb00200220000b
:10289c00a9fc070000447800410120003090200082
:1028ac000a6e02000000000011012000a019210096
:1028bc000a6e020000000000145902000000000023
:1028cc000004e000fcff3200009e210091c0b30028
:1028dc0090cf100003003a0008407800c05c020062
:1028ec0000000000f45802000000000008c2b30011
:1028fc00c859020000000000884f5000fcff3a004d
:10290c004f04780000000600ec874700889fbe004b
:10291c008a9fbe008c9fbe008e1f78000000eb00cb
:10292c0010c4880000c4880020cf88004188210092
:10293c00804878000002eb00568821008002eb00f2
:10294c008041eb000202200007003700836878000a
:10295c000000e800820f5000fcff3a000402e8007f
:10296c00e30f5200050032007820b9008000e90026
:10297c008680400005007800f4ff37000000eb0073
:10298c0070c688000007eb00deb79f00eeb79f0013
:10299c0020c2b30080ef9f000003200022cf8000f4
:1029ac000091b900818f210001004100325b0200cf
:1029bc000000000050a02800325b02000000000064
:1029cc008000eb0081bf9f00598821000b80210003
:1029dc008a9c210070c680000000e0004300320099
:1029ec000000e90070c688007801b900e940790060
:1029fc000104e000130032000004eb0002c480006c
:102a0c00817579007800b9000000440069407800b5
:102a1c00da590200000000000804e80000c480003d
:102a2c000000e800f007b20000c4880070c6800007
:102a3c007801b90082004400e9c078000104e0008c
:102a4c00eeff3a000000eb0070c68800270037004c
:102a5c001a417800644061002700320018007800a9
:102a6c000c80b9007a0040006d0078000000010075
:102a7c000004e00020003200180078000c80b9003f
:102a8c008002b0000d004000325b0200000000002c
:102a9c0050a02800325b02000000000010c480002f
:102aac0001c48000810f500013003200120032006c
:102abc00f0b79f00ffb197006bc07900da590200a4
:102acc00000000007fb29700f507200005006200af
:102adc000000e800f0b79f0000c480007fb39700af
:102aec00800f530004003200f2ff3700489e210093
:102afc000c0320000d8d21001c5902000000000069
:102b0c000004e000d2ff3200c65c020000000000ae
:102b1c000004e00003003200cc5c02000000000066
:102b2c00acff3700c85902000000000000447800d8
:102b3c000880fb008000eb00f2072000820f5000a1
:102b4c00e08f580056023e00006001004c02370036
:102b5c00120237000501370051023700b60037006a
:102b6c0021023700160137004d023700770037007d
:102b7c004b0237002f02370049023700480237005a
:102b8c002c0237007f01370045023700190137004e
:102b9c00430237004202370041023700400237003f
:102bac003f0237003e0237003d0237003c0237003f
:102bbc003b0237003a023700c600370038023700b4
:102bcc00370237003602370035023700340237003f
:102bdc00330237003202370031023700300237003f
:102bec002f0237002e0237002d0237002c0237003f
:102bfc002b0237002a02370029023700280237003f
:102c0c00270237002602370025023700240237003e
:102c1c00230237002202370021023700200237003e
:102c2c001f0237001e0237001d0237001c0237003e
:102c3c001b0237001a02370019023700180237003e
:102c4c00170237001602370015023700140237003e
:102c5c00130237001202370011023700100237003e
:102c6c000f0237000e0237000d0237000c0237003e
:102c7c000b0237000a02370009023700080237003e
:102c8c00070237000602370005023700040237003e
:102c9c00030237000202370001023700000237003e
:102cac00ff013700fe013700fd013700fc01370042
:102cbc00fb013700fa013700f9013700f801370042
:102ccc00f7013700f6013700f5013700f401370042
:102cdc00f3013700f2013700f1013700f001370042
:102cec00ef013700ee013700ed013700ec01370042
:102cfc00eb013700ea013700e9013700e801370042
:102d0c00e7013700e6013700e5013700e401370041
:102d1c00e3013700e2013700e1013700e001370041
:102d2c00df013700de013700dd013700dc01370041
:102d3c00db013700da013700d9013700d801370041
:102d4c00d7013700d60137003b00370010c4800094
:102d5c00800f57003400320000c48000800f5700f1
:102d6c0009003a000e07e900fe07b2000ec4880005
:102d7c008041eb0083757f00f0902800325b0200ed
:102d8c000000000013ff37000e07e900fe07b20039
:102d9c0070a02800325b02000000000000c480001c
:102dac000006eb00800f5700120032008e007800f6
:102dbc00fd0720000104e8006b407c0080f57800e2
:102dcc000004e00003003200da59020000000000a9
:102ddc000300370000c2b300da5902000000000003
:102dec000c06e8008d00640000c48000808f500049
:102dfc00f0ff3a000000e900f007b20000c48800c0
:102e0c00b0a02800325b0200000000000c407800eb
:102e1c00f059020000000000e0a02800325b020024
:102e2c0000000000ebfe370070c0b300da5902005e
:102e3c0000000000e7fe370000c48000800f570040
:102e4c00200032008e0078000006eb00fd07200009
:102e5c000104e8006b407c0080f578000004e00081
:102e6c0003003200da5902000000000003003700b2
:102e7c0000c2b300da590200000000000c06e800a2
:102e8c008d00640000c48000808f5000f0ff3a0079
:102e9c000000e900f007b20000c48800b0a02800d0
:102eac00325b0200000000000c407800f059020078
:102ebc0000000000e0a02800325b020000000000cf
:102ecc00c4fe370070c0b300da59020000000000e5
:102edc00c0fe3700c859020000000000b1c5b300a5
:102eec00814f5000bbfe3a00c859020000000000a0
:102efc0011c4b300814f50003e00320007003e0069
:102f0c00f0c05000814f50000c003200e3c0400074
:102f1c00814f5000affe3a000e00370031c4b300b1
:102f2c00814f500026003200960039008140e800a5
:102f3c00814f5000a7fe3a000c003700c859020020
:102f4c0000000000e1c7b300814f5000a1fe3a0021
:102f5c0012013700c859020000000000e1c7b3009d
:102f6c00814f50009bfe3a001f0137005fb2970063
:102f7c00e40f520005003400866d020000000000d2
:102f8c008002eb00d5b79f0092fe370010c4800082
:102f9c00800f5700060032000e07e900fe07b20052
:102fac0070a02800325b02000000000089fe370090
:102fbc0070c0b300da5902000000000085fe370033
:102fcc0000c48000800f5700060032000e07e80096
:102fdc00fe07b20000a12800325b020000000000d6
:102fec007cfe370070c0b300da590200000000000c
:102ffc0078fe370015c480000504e900f807b2001c
:10300c000806780002c48000820f54005900320078
:10301c000002eb00f00720000fbb9700eb407c0098
:10302c000104e0004e003a008800e9008080600056
:10303c00ebc178000304e000490032000402e80010
:10304c00860f520046003600010078000fbb970037
:10305c000603e80086bf9f00828f520009003200f1
:10306c00f30720000042eb00847579000201e900af
:10307c0003016100828f5200faff3a0002c48800fb
:10308c008475790002c48000820f50001000320059
:10309c006b407800f30720000004e00008003a00c1
:1030ac00030037006bc078000004e00004003a0015
:1030bc008100e800f107b200e1b79f00040037007f
:1030cc008100e90083806000828f5000f5ff3a0098
:1030dc0040a12800325b0200000000000003200029
:1030ec0022cf80000091b900818f210001004100a6
:1030fc00325b02000000000050a02800325b02008e
:10310c0000000000efb29700888f52000e003200d2
:10311c0085067800fe0720006bc07e00da5902009d
:10312c000000000000c480006df07d000000e8008d
:10313c000e00600000c488008d06e8008e866600d4
:10314c00888f5600f4ff3a000ec480000040eb005c
:10315c0080757f008e0f56001efe3a00050037006a
:10316c000804e9000004640008067800820f54008b
:10317c00aaff3a0070c0b300da5902000000000048
:10318c0014fe370016c480000604e900f807b200ec
:10319c000806780002c48000820f54005a003200e6
:1031ac000002eb00f00720008fb897008102e900c5
:1031bc00eb407c000104e0004e003a008800e9007e
:1031cc0080806000ebc178000304e000490032000d
:1031dc000402e800848f520046003a000100780097
:1031ec008fb997008301e90083bf9f00820f5300c2
:1031fc0009003200f30720000042eb0084757900cf
:10320c000201e90003016100820f5300faff3a004a
:10321c0002c488008475790002c48000820f5000bb
:10322c00100032006b407800f30720000004e0002f
:10323c0008003a00030037006bc078000004e0007f
:10324c0004003a008100e800f107b200e1b79f00ea
:10325c00040037008100e90083806000828f5000f9
:10326c00f5ff3a0040a12800325b0200000000008c
:10327c000003200022cf80000091b900818f210033
:10328c0001004100325b02000000000050a0280049
:10329c00325b020000000000efb29700888f5200f2
:1032ac000e00320085067800fe0720006bc07e0001
:1032bc00da5902000000000000c480006df07d00af
:1032cc000000e8000e00600000c488008d06e800d5
:1032dc008e866600888f5600f4ff3a000ec480007c
:1032ec000040eb0080757f008c0f5700b9fd3a0051
:1032fc00050037000804e9000004640008067800a3
:10330c00820f5400aaff3a008fb89700e18f50004b
:10331c001e003a0040a12800325b020000000000b1
:10332c000003200022cf80000091b900818f210082
:10333c0001004100325b02000000000050a0280098
:10334c00325b0200000000000ec4800010c480003c
:10335c00800f570008003200f10720000041eb00fd
:10336c0082757f000e07e90001076700800f570088
:10337c00faff3a000ec488008041eb0083757f0091
:10338c000002eb0084bf9f0092fd370070c0b300b9
:10339c00da590200000000008efd370018c48000ce
:1033ac00880f57000c003200b0a02800325b0200de
:1033bc000000000008005700f007b200f0590200ae
:1033cc0000000000e0a02800325b020000000000ba
:1033dc001ec480007ffd370070c0b300da590200b4
:1033ec00000000007bfd370008c48000880f5700e8
:1033fc000c003200b0a02800325b0200000000007c
:10340c000e005400f007b200f0590200000000005a
:10341c00a0a12800325b0200000000000ec4800056
:10342c006cfd370070c0b300da59020000000000d8
:10343c0068fd370000c480000044eb0001802100cf
:10344c00887078000000e80000077800fe07b200e2
:10345c000ec4880030912800125b020000000000ae
:10346c0005c48000f5b79f001dc480004088210072
:10347c000848780098ef9f00088021005100370021
:10348c005fb397000603e800d6b79f00f40f530014
:10349c0050fd3a00c25e0200000000004dfd3700f6
:1034ac000cc480008c00e800f107b20010c480004e
:1034bc00808f50003f003200ff4f54003d0036001b
:1034cc00e0c7b300804f54003a003e008c0f570009
:1034dc000c003a0008407800da59020000000000a5
:1034ec0000c48000887578000000e80000077800b0
:1034fc00fe07b2000ec488000040eb0080757f0010
:10350c0034fd3700b0a02800325b02000000000040
:10351c000e005600fd0720000d006000f05902005f
:10352c0000000000a0a12800325b02000000000097
:10353c000cc480000e00e9008d0660008d0f560053
:10354c00100032000c804500eb407e0011409800ca
:10355c006b407e000004e00005003200da590200e6
:10356c0000000000c0a12800325b02000000000037
:10357c000c06e900f2072000020666008d0f5600cb
:10358c00f0ff3a0008407800da5902000000000011
:10359c0088757f000e07e800f00720000007670021
:1035ac0001c480008100e8000080600000c4880035
:1035bc0008fd370070c0b300da59020000000000ab
:1035cc0004fd370012c48000684079000080fb00c5
:1035dc008000eb00e3072000830f5000e08f5800c1
:1035ec0035043e0000600100360437003204370019
:1035fc0031043700300437002f0437002e04370015
:10360c002d0437002c0437002b0437002a04370014
:10361c002c0437002804370027043700290437000e
:10362c002504370024043700230437002204370014
:10363c0021043700200437001f0437001e04370014
:10364c001d0437001c0437001b0437001a04370014
:10365c001904370018043700170437001604370014
:10366c00150437001404370016043700f50337002f
:10367c00870237002001370029013700d9013700b4
:10368c00c70137000c043700640237000a04370006
:10369c0009043700080437000a043700aa0337006e
:1036ac00c103370090033700e2023700e102370014
:1036bc00e0023700df023700de023700dd023700a0
:1036cc00dc023700db023700da023700d9023700a0
:1036dc00f9033700f8033700de013700c400370068
:1036ec00f503370046003700330137002901370056
:1036fc00f103370069003700a6013700ee033700ed
:10370c00ed033700ec033700eb033700ea03370017
:10371c00e9033700e80337006a003700e603370097
:10372c00e5033700e40337008c003700e203370071
:10373c00e1033700bc013700df033700de0337003d
:10374c00dd03370030013700db033700da033700c5
:10375c00d9033700980237006f033700a5023700f2
:10376c009f03370084033700d30337000001370071
:10377c002e0037004100370078013700ce033700a8
:10378c003000370032003700160037001f003700ba
:10379c00c9033700c8033700540037002100370035
:1037ac00c5033700230037005a003700c203370027
:1037bc00ff023700c0033700bf033700be033700da
:1037cc001e0037004a013700bb033700ba0337002d
:1037dc00b90337007f0237009e0037008d02370097
:1037ec00b800370063f907000000e000b5033a00a9
:1037fc001dc4800004c48000f4b79f00b1033700df
:10380c00146e020000000000ae03370040fa0700ff
:10381c0020cf80000000e000aa0332004efb07001e
:10382c00a8033700c7f90700a6033700ebfb070016
:10383c00a4033700cbfb0700a2033700defa070016
:10384c00a0033700ee4d0200000000009d0337007e
:10385c0020cf80000000e00005003a00d1012000dc
:10386c00505a20000a6e0200000000009503370039
:10387c007c4b02000000000092033700809c21006a
:10388c00c1cfb30010c8600061012000a057200018
:10389c000a6e0200000000008a033700819c2100a0
:1038ac00114078000000a0000014a10080487800ae
:1038bc0051012000005920000a6e02000000000097
:1038cc0080033700809c21001034a000c10120002f
:1038dc00e07e2000ae6d0200000000003091280058
:1038ec00125b02000000000076033700809c210070
:1038fc001034a100b1012000307d2000ae6d02001b
:10390c000000000030912800125b02000000000053
:10391c006c03370020cf80000000e00005003a0067
:10392c00d1012000505a20000a6e02000000000055
:10393c0064033700cb62a900c962a90051012000c1
:10394c00205c2000ae6d02000000000030912800c9
:10395c00125b0200000000005a03370020cf8000e9
:10396c000000e00005003a00d1012000505a200070
:10397c000a6e02000000000052033700809c2100f8
:10398c00104078007040600004003a0021022000d2
:10399c00f0e920000a6e020000000000c962a800d5
:1039ac00cb62a90041012000705d2000ae6d0200c9
:1039bc000000000030912800125b020000000000a3
:1039cc0021e3a800b0002000026b02000000000000
:1039dc00f1042000810f500003003e0010a22800cb
:1039ec00125b02000000000021e3a9003503370040
:1039fc000200e800f007b20010c488003ef807008f
:103a0c0057f707008004780009007800925c0200e8
:103a1c000000000040a42800325b020000000000ff
:103a2c0009407800f05902000000000040a4280072
:103a3c00325b02000000000009407800145c0200b8
:103a4c000000000030912800125b02000000000012
:103a5c001c0337000200e800f007b20010c4880015
:103a6c0025f807003ef707000080fb00686c020099
:103a7c00000000008004780009007800925c0200cd
:103a8c000000000040a42800325b0200000000008f
:103a9c0009407800f05902000000000040a4280002
:103aac00325b02000000000009407800145c020048
:103abc000000000030912800125b020000000000a2
:103acc000003370020cf80000000e00005003a0022
:103adc0011c0b30001407800a6660200000000008f
:103aec00f8023700a1012000b05e20000a6e02002f
:103afc0000000000f302370051002000506020004d
:103b0c000a6e0200000000001459020000000000c0
:103b1c000004e000fcff32000000fe00e902370068
:103b2c00a06e0200000000000004e000e50232007c
:103b3c00a1002000a06020000a6e0200000000001e
:103b4c00400620003e6c020000000000ca6a020021
:103b5c000000000014590200000000000004e00006
:103b6c00fcff320081bf2a0001400100d502370062
:103b7c0099f70700800478000900e000d1023200b8
:103b8c0042510200000000008904e900fcff3a00e9
:103b9c00cc02370090f70700800478000900e000a1
:103bac00c802320026510200000000008904e9001e
:103bbc00fcff3a00c302370087f707008004780047
:103bcc000900e000bf0232004a6120003b9128004e
:103bdc00610120000a007800ae6d020000000000b8
:103bec005e51020000000000b05c0200000000000a
:103bfc000b007800125b0200000000008904e90051
:103c0c00f3ff3a00af02370020cf80000000e00045
:103c1c0005003a00d1012000505a20000a6e020023
:103c2c0000000000a7023700c002a900c202a800d1
:103c3c0021e3a800200020003e6c020000000000e0
:103c4c00a0002000026b020000000000011b2000fd
:103c5c00810f50001800360090002000026b02000b
:103c6c0000000000712b2000810f50001200360064
:103c7c0011012000a0622000ae6d020000000000c7
:103c8c0030912800125b02000000000000032000ad
:103c9c0021cf80000088b9000002b000018d210006
:103cac00610078000000010080a42800125b020073
:103cbc00000000000c003700c002a900c202a900dd
:103ccc00a0a52800125b02000000000021012000ca
:103cdc00b0632000ae6d020000000000309128009f
:103cec00125b02000000000021e3a90075023700fe
:103cfc0020cf80000000e00005003a00d101200038
:103d0c00505a20000a6e0200000000006d023700bd
:103d1c00010320000180b9002002b000018d2100b8
:103d2c00610078000000010090912800125b0200f5
:103d3c0000000000c002a900c202a900210120005d
:103d4c00b0632000ae6d020000000000309128002e
:103d5c00125b0200000000005a023700f100200044
:103d6c00c0362000ae6d020000000000106b020097
:103d7c000000000011002000b0372000ae6d0200e2
:103d8c000000000030912800125b020000000000cf
:103d9c004c0237001e6b0200000000004902370085
:103dac000df707008004780061002000906520006a
:103dbc00ae6d02000000000009007800645a020099
:103dcc000000000021002000f06520000a6e0200b7
:103ddc000000000009007800106c020000000000d8
:103dec0038023700fcf607008004780061002000e0
:103dfc0090652000ae6d0200000000000900780004
:103e0c00645a0200000000002100200030ee200067
:103e1c000a6e020000000000090078003e6c0200ef
:103e2c00000000002702370020cf80000000e000d7
:103e3c0005003a00d1012000505a20000a6e020001
:103e4c00000000001f023700845102000000000037
:103e5c001c02370011c0b3004088210001487800d3
:103e6c000200e800f007b200e84078000104e0002e
:103e7c001402320014c0b300100020008042eb008a
:103e8c00f3072000e6c3b30086cf500001003a00d0
:103e9c00054278000000e80082004000838060004a
:103eac00e8c078000104e000f6ff3a0041882100e8
:103ebc0084487800fa0f50000400340011c0b3009d
:103ecc004088210001487800fe013700408821001d
:103edc001004e000fb013a0010c480000000e80070
:103eec00fa0720000a00600010c488001cf60700c6
:103efc008004780010c480000a05600068417d00d1
:103f0c00d1c3b300814f510021003a008900e90070
:103f1c00e28f50001a003e000000e800f007b200eb
:103f2c0010c48800010178007811b9004088210084
:103f3c0080004100010178000000eb008041eb00a3
:103f4c00036978000000e800f80f5000fcff3a000d
:103f5c0010c48000f307200003003700826878004b
:103f6c000000e8000300600068417800e4c3b3007f
:103f7c00844f5100f9ff3a0010c48800d10137007a
:103f8c0011c0b3004088210001487800cd013700f2
:103f9c000900e00015003a005a88210019002000a1
:103fac00aba728005ca0280009407800f05902005b
:103fbc00000000000b007800325b020000000000e3
:103fcc000a007800325b0200000000000c00780050
:103fdc00125b0200000000008904e800780545002f
:103fec00e48f5400f0ff3a00b60137000900e900f5
:103ffc00e20f500005003e0030912800125b0200d9
:10400c000000000079c68800ae01370011c0b30073
:10401c004088210001487800aa0137000200e8001e
:10402c00f90720000900600010c48800ccf50700d7
:10403c0000057800b0f6070010c480008904600009
:10404c00e8c07c0090c2b30080cf50000c003a0056
:10405c000003200021cf80000088b9007c004000c4
:10406c00018d2100e10078000a00780001000100b8
:10407c0030912800125b0200000000009101370013
:10408c0011c0b30040882100014878008d01370031
:10409c0011c0b30040882100014878000200e800fc
:1040ac00f007b200684078000004e000850132009f
:1040bc000281e800814178000042eb00f10720000a
:1040cc0025c2b300854f500001003a0084417800ae
:1040dc0001006100684078000201e8000004e00083
:1040ec00f7ff3a0040882100034878000304e00001
:1040fc0074013a007100200010662000ae6d0200c1
:10410c00000000000fe89700da59020000000000e0
:10411c0011c480008100e800f107b20068c078008b
:10412c0026c2b300864f50001b0032008a9c21002f
:10413c00499e21000b0320000c8d210011c4880026
:10414c00da5902000000000010c4800068407800ba
:10415c000000fb001a417800e840610002003200c8
:10416c00686c020000000000190178000b91b90086
:10417c00e8004100ec8078000100010011c48000cf
:10418c008100e800f107b20068c0780023c2b300d8
:10419c00834f5000e9ff3a0011c488000fe89700e4
:1041ac00da5902000000000030912800125b020076
:1041bc0000000000430137000003200021cf8000e5
:1041cc000088b900028d2100620078000000010017
:1041dc003c0137000003200021cf80000088b9008b
:1041ec000080e800018d21006100780000000100d2
:1041fc00340137000003200021cf80000088b90073
:10420c0064004000018d2100610078000000010075
:10421c002c0137000003200021cf80000088b9005a
:10422c0066004000018d2100610078000000010053
:10423c00240137007100200010662000ae6d0200d2
:10424c000000000046f507008005780010c48000cf
:10425c000000e900f007b20010c48800def507008a
:10426c008004e800f1f507000000e000480032008f
:10427c00719b210080487800e80f50000300340047
:10428c00718040001054a00041003700809c210038
:10429c001054a1003e0037000b007800846b020024
:1042ac000000000004c2b3001a40620005003a008e
:1042bc0086c0b300759b2100954f130005003a0092
:1042cc000b00370001c1b300709b210090cf100090
:1042dc0007003200b0c3b300da590200000000003e
:1042ec00729b210012407800f0590200000000007f
:1042fc009a41780068c06100040032000b0078001d
:10430c00686c020000000000800578001c0078003a
:10431c00040320000480b90068004000058d2100d2
:10432c00e50078000b0078000100010080bf9f00c1
:10433c0000c2b300da5902000000000006c4b3004a
:10434c001a406300140032006100200080662000d7
:10435c00ae6d0200000000009a40780068c060005a
:10436c00040032000fb89700686c020000000000d7
:10437c0080bf9f000fb89700846b02000000000004
:10438c0000c2b300da59020000000000020037003e
:10439c008a9c21004c9e21008904e900beff3a0052
:1043ac0030912800125b020000000000c5003700ad
:1043bc006100200080662000ae6d0200000000004d
:1043cc00aff5070080f79f0083f5070080047800a5
:1043dc0096f507000000e00009003200719b2100f7
:1043ec0080487800e80f50000300340071804000d2
:1043fc001054a00002003700809c21001054a10032
:10440c000ff197000204e00005003200209e21000d
:10441c009041780093ef9f008280fb000108e90037
:10442c000900e000260032004a9e21008b9c2100ee
:10443c00718655001a007800040320000480b9002e
:10444c006a004000058d2100650078000000010025
:10445c001b437800e840630002003200686c0200e5
:10446c0000000000846b02000000000001c2b300d9
:10447c001bc0600004003a0082c0b3009c4f1100c6
:10448c0004003a000900370003c1b3009ccf1100af
:10449c0006003200b0c3b300da590200000000007d
:1044ac001c407800f05902000000000000c2b3006c
:1044bc00da590200000000008904e900ddff3a002f
:1044cc000ff297000404e000030032009fea97000b
:1044dc000580fb0010cf880030912800125b020091
:1044ec00000000007700370081002000e06620000b
:1044fc000a6e0200000000000003200021cf8000a3
:10450c000088b9006c004000018d2100610078002a
:10451c00000001006b003700810020006067200064
:10452c000a6e0200000000000003200021cf800072
:10453c000088b9006e004000018d210061007800f8
:10454c00000001005f003700e1002000e067200060
:10455c000a6e0200000000000003200021cf800042
:10456c000088b90070004000018d210061007800c6
:10457c000000010053003700e1002000c06820005b
:10458c000a6e0200000000000003200021cf800012
:10459c000088b90072004000018d21006100780094
:1045ac000000010047003700c1002000d06420004b
:1045bc00ae6d0200000000000003200021cf80003f
:1045cc000088b90074004000018d21006100780062
:1045dc0000000100b05c0200000000003900370050
:1045ec00fdf4070080047800d1002000a06a2000b0
:1045fc00ae6d02000000000009007800846b020020
:10460c00000000000900e0000a0032004a9e210070
:10461c000b8d21009a007800000320000088b9005f
:10462c00760040006b007800000001008904e9006e
:10463c00f8ff3a0030912800125b020000000000e5
:10464c0020003700e4f4070080047800a10020006b
:10465c00706b2000ae6d0200000000000900e0004d
:10466c00100032004a9e21000b8d21009a00780028
:10467c00000320000088b900780040006b0078002f
:10468c00000001000080fb00b05c02000000000094
:10469c0000c2b300da590200000000008904e900ee
:1046ac00f2ff3a0001012000a06920000a6e02000e
:1046bc00000000000300370011c0b3004088210047
:1046cc000148780010c480000000e800f007b20038
:1046dc0010c488000001eb00408821001004e000a9
:1046ec001600320051012000106c2000ae6d02004b
:1046fc000000000010c48000808f560004003100c0
:10470c000d405000f0590200000000000500370079
:10471c0001c8b300014040000d405000f0590200a8
:10472c0000000000408821000048eb003091280078
:10473c00125b0200000000001200200000c4800088
:10474c0011c48000808f5000020032000200e00093
:10475c009cfb32007fb3970016c4880006c4880007
:10476c008df83700575249005445200042495400f7
:10477c003a2020002a6e650078742000636c6f006c
:10478c00636b2000285e2900207769006c6c200088
:10479c0075736500207468006973200076616c0085
:1047ac0075654e006f2064006576690063652c00aa
:1047bc002074720079202800414c4100524d290090
:1047cc00205345004152430048206d006163720044
:1047dc006f206600697273007441440044524500b6
:1047ec00535320004d414300524f200020302e00e7
:1047fc004d616300726f20006d656e00754d610038
:10480c0063726f0020202000202031005749520095
:10481c004520610064647200657373000d0a20000a
:10482c0020202a003157490052452000524f4d009c
:10483c0020434f004d4d41004e4420004d4143005c
:10484c00524f73003a0d0a00203531002e524500ac
:10485c0041442000524f4d00202830007833330063
:10486c0029202a00666f7200207369006e676c0045
:10487c0065206400657669006365200062757300cd
:10488c000d0a200038352e004d41540043482000bd
:10489c00524f4d00202830007835350029202a0051
:1048ac00666f6c006c6f7700656420006279200085
:1048bc0036346200697420006164640072657300b0
:1048cc00730d0a0020323000342e53004b49500037
:1048dc0020524f004d2028003078430043292000ff
:1048ec002a666f006c6c6f0077656400206279003b
:1048fc0020636f006d6d61006e640d000a20320044
:10490c0033362e00414c4100524d2000534541009e
:10491c00524348002028300078454300290d0a00f6
:10492c0020323400302e53004541520043482000c1
:10493c00524f4d00202830007846300029414c0061
:10494c0041524d002053450041524300482028005d
:10495c00307845004329530045415200434820001c
:10496c00283078004630290044657600696365007c
:10497c00204944007320610072652000617661005b
:10498c00696c6100626c650020627900204d410009
:10499c0043524f002c2073006565200028302900fd
:1049ac002e52450041442000524f4d00202830002b
:1049bc0078333300293a20004d41540043482000fd
:1049cc00524f4d00202830007835350029534b00cc
:1049dc0049502000524f4d002028300078434300ae
:1049ec0029556e006b6e6f00776e20006d61630051
:1049fc00726f2c002074720079203f00206f7200bf
:104a0c0020283000292066006f72200068656c0039
:104a1c007042550053205200455345005420570016
:104a2c0061726e00696e67003a202a0053686f004d
:104a3c00727420006f7220006e6f200070756c0015
:104a4c006c2d750070202a004e6f20006465760076
:104a5c0069636500206465007465630074656400b7
:104a6c00204453003138530032302000486967002d
:104a7c006820500072657300204469006720540060
:104a8c00686572006d4453003138420032302000aa
:104a9c0050726f00672052006573200044696700f4
:104aac002054680065726d00445331003832320076
:104abc00204563006f6e2000446967002054680035
:104acc0065726d004453320034303400204563006d
:104adc006f6e7200616d200074696d00652043007b
:104aec0068697000445332003433310020314b007c
:104afc002045450050524f004d556e006b6e6f00b7
:104b0c00776e2000646576006963650050574d0030
:104b1c0020646900736162006c656400314b48006d
:104b2c007a2d34002c303000304b48007a20500065
:104b3c00574d46007265710075656e0063792000f3
:104b4c00696e20004b487a00205072006573630038
:104b5c00616c65003a505200323a44007574790029
:104b6c0020637900636c650020696e0020252000ad
:104b7c0050574d0020616300746976006545520002
:104b8c00524f52003a205000574d20006163740080
:104b9c00697665002c20670020746f002064690022
:104bac00736162006c6541005558200046726500c7
:104bbc00717565006e6379003a20410055582000ec
:104bcc00494e500055542f0048492d005a4155006c
:104bdc00582048004947480041555800204c4f0088
:104bec0057564f004c544d004554450052204d0033
:104bfc004f444500564f4c0054414700452050004f
:104c0c00524f4200453a200056457200726f7200b6
:104c1c0028292000406c69006e653a002040700025
:104c2c00676d730070616300653a200062797400ef
:104c3c0065732e00546f6f00206c6f006e6721003f
:104c4c0053796e007461780020657200726f720087
:104c5c004e6f200045455000524f4d00457261008b
:104c6c0073696e0067646f006e655300617669004e
:104c7c006e672000746f2000736c6f007420490005
:104c8c006e7661006c69640020736c006f744c006c
:104c9c006f616400696e6700206672006f6d2000a2
:104cac00736c6f007420450052524f00523a200032
:104cbc00636f6d006d616e0064206800617320008d
:104ccc006e6f200065666600656374002068650081
:104cdc0072654100434b4e0041434b004932430047
:104cec002053540041525400204249005449320090
:104cfc0043205300544f5000204249005449320085
:104d0c0043206d006f6465003a0d0a0020312e00bf
:104d1c0020536f0066747700617265000d0a2000e5
:104d2c00322e200048617200647761007265530076
:104d3c00657420007370650065643a000d0a2000ec
:104d4c00312e20007e354b00487a0d000a203200af
:104d5c002e207e0035304b00487a0d000a2033009f
:104d6c002e207e00313030004b487a000d0a200096
:104d7c00342e20007e343000304b48007a574100ee
:104d8c00524e49004e473a002048410052445700c9
:104d9c0041524500204932004320690073206200d3
:104dac00726f6b00656e20006f6e20007468690076
:104dbc007320500049432100202852004556200002
:104dcc0041332900536574002073700065656400dd
:104ddc003a0d0a0020312e0020313000304b4800b3
:104dec007a0d0a0020322e0020343000304b48005f
:104dfc007a0d0a0020332e0020314d00487a4900ec
:104e0c0032432000286d6f00642073007064290009
:104e1c003d28200020302e004d616300726f200071
:104e2c006d656e00750d0a0020312e003762690029
:104e3c0074206100646472006573730020736500f4
:104e4c0061726300680d0a0020322e004932430063
:104e5c0020736e00696666006572530065617200ae
:104e6c00636869006e67200049324300206164006a
:104e7c0064726500737320007370610063652e00ab
:104e8c0020466f00756e64002064650076696300cf
:104e9c006573200061743a00536e690066666500a4
:104eac007228420041534900432952006561640055
:104ebc0079612f00412f400020636f006e747200e7
:104ecc006f6c73002041550058207000696e6100b2
:104edc002f412f00402063006f6e7400726f6c00c6
:104eec007320430053207000696e43006f6d6d009a
:104efc00616e6400206e6f00742075007365640031
:104f0c0020696e0020746800697320006d6f640066
:104f1c00655075006c6c2d00757020007265730007
:104f2c00697374006f727300204f46004650750011
:104f3c006c6c2d00757020007265730069737400c1
:104f4c006f727300204f4e0053656c00662d740019
:104f5c006573740020696e00204869005a206d004a
:104f6c006f646500206f6e006c79520045534500ec
:104f7c0054424f004f544c004f41440045524100a5
:104f8c0055582000494e500055542f0048492d00cb
:104f9c005a2c200052454100443a2000504f5700f3
:104fac004552200053555000504c490045532000a9
:104fbc004f4e50004f574500522053005550500053
:104fcc004c49450053204f00464644004154410093
:104fdc0020535400415445003a204400454c4100b4
:104fec005920750073575200495445003a2052001d
:104ffc00454144003a2043004c4f43004b2c2000c9
:10500c0031434c004f434b002c20300044415400a2
:10501c0041204f005554500055542c002031440071
:10502c0041544100204f550054505500542c200041
:10503c0030202a0070696e0020697300206e6f00aa
:10504c0077204800695a43004c4f43004b205400d2
:10505c0049434b00533a2000524541004420420042
:10506c0049543a00205379006e7461007820650031
:10507c0072726f00722061007420630068617200ac
:10508c0020782e00206578006974280077697400f8
:10509c00686f75007420630068616e006765290095
:1050ac006e6f20006d6f64006520630068616e0098
:1050bc00676523003a204e006f2073006f66740002
:1050cc0077617200652072006573650074206f0053
:1050dc006e207600342c20007573650020746800f7
:1050ec00652072006573650074206200757474002d
:1050fc006f6e2e004e6f6e006578690073746500dc
:10510c006e74200070726f00746f63006f6c2100fe
:10511c00782e200065786900740d0a00496e7600bf
:10512c00616c690064206300686f690063652c0022
:10513c002074720079206100676169006e4445003b
:10514c00564944003a68740074703a002f2f64007a
:10515c00616e670065726f0075737000726f74001a
:10516c006f747900706573002e636f006d2a2d00cb
:10517c002d2d2d002d2d2d002d2d2d002a4f7000a5
:10518c00656e200064726100696e20006f7574009a
:10519c007075740073202800483d4800692d5a0032
:1051ac002c204c003d474e0044294e006f726d0080
:1051bc00616c20006f75740070757400732028008a
:1051cc00483d33002e3376002c204c003d474e00da
:1051dc0044294d0053422000736574003a204d0061
:1051ec004f535400207369006720620069742000db
:1051fc006669720073744c0053422000736574002e
:10520c003a204c004541530054207300696720003c
:10521c0062697400206669007273740020426f002a
:10522c006f746c006f616400657220007620310031
:10523c002e20480045580d000a2032002e20440034
:10524c0045430d000a2033002e204200494e0d002c
:10525c000a2034002e20520041574400697370001c
:10526c006c61790020666f00726d610074207300b0
:10527c00657456006f6c740061676500206d6f007b
:10528c006e6974006f7273003a203500563a200034
:10529c00207c2000332e3300563a2000207c200046
:1052ac00565055004c4c5500503a20005365740034
:1052bc0020736500726961006c2070006f7274005d
:1052cc0020737000656564003a20280062707300da
:1052dc00290d0a0020312e0020333000300d0a0039
:1052ec0020322e002031320030300d000a203300e5
:1052fc002e203200343030000d0a2000342e2000d5
:10530c0034383000300d0a0020352e00203936009c
:10531c0030300d000a2036002e203100393230009a
:10532c00300d0a0020372e00203338003430300086
:10533c000d0a2000382e20003537360030300d0095
:10534c000a2039002e2031003135320030300d006a
:10535c000a3130002e204200524720007261770043
:10536c00207661006c75650041646a007573740089
:10537c0020796f0075722000746572006d696e0083
:10538c00616c410072652000796f750020737500a7
:10539c0072653f002043460047313a0020434600e7
:1053ac0047323a00285c2d002f5f5c002d29280025
:1053bc005c5f2f002d295300656c65006374200021
:1053cc006f757400707574002074790070653a0004
:1053dc000d0a2000312e20004f7065006e206400f5
:1053ec00726169006e202800483d4800692d5a0002
:1053fc002c204c003d474e0044290d000a20320061
:10540c002e204e006f726d00616c200028483d000c
:10541c00332e3300562c20004c3d47004e442900bf
:10542c0052325700202873007064200068697a009b
:10543c00293d2800202030002e4d610063726f0042
:10544c00206d65006e750d000a2031002e49530049
:10545c004f37380031362d003320410054520d00a7
:10546c000a2032002e4953004f37380031362d00b8
:10547c00332070006172730065206f006e6c7900d0
:10548c0049534f002037380031362d00332041006e
:10549c00545220002852450053455400206f6e0092
:1054ac0020435300290d0a00524553004554200057
:1054bc0048494700482c2000434c4f00434b2000e8
:1054cc00544943004b2c20005245530045542000b6
:1054dc004c4f570049534f002037380031362d00c0
:1054ec003320720065706c0079202800757365009c
:1054fc007320630075727200656e7400204c53004b
:10550c004220730065747400696e6700293a2000ac
:10551c0050726f00746f63006f6c3a0020736500fb
:10552c00726961006c33200077697200653220006b
:10553c00776972006552460055756e006b6e6f0090
:10554c00776e5200656164002074790070653a00d2
:10555c0020746f0020656e006476610072696100d2
:10556c00626c6500206c65006e67740068446100b5
:10557c0074612000756e690074733a00206e6f00c0
:10558c0020696e0064696300617469006f6e440089
:10559c006174610020756e00697420006c656e008a
:1055ac00677468002028620069747300293a20002f
:1055bc0043532000454e4100424c450044435300a8
:1055cc0020444900534142004c454400523357009b
:1055dc00202873007064200063736c0020686900dd
:1055ec007a293d00282029000d0a440069736300c4
:1055fc006f6e6e006563740020616e00792064002c
:10560c0065766900636573000d0a43006f6e6e006a
:10561c00656374002028560070752000746f20009c
:10562c002b355600292061006e642000284144006f
:10563c00432074006f202b00332e33005629430077
:10564c0074726c00415558004d4f440045204c007d
:10565c0045445000554c4c005550200048505500c6
:10566c004c4c550050204c005652450047414400cc
