:0600000002008B023868CB
:01000B0032C2
:0100130032BA
:01001B0032B2
:0100230032AA
:01002B0032A2
:030033000230BBDD
:01003B003292
:01004300328A
:03004B000240115F
:030053000206E0C2
:03005B000209B8DF
:01006300326A
:03006B000231431C
:01007300325A
:01007B003252
:03008300023B8DB0
:0300E7000200868E
:03008600021A76E5
:1000EA00AF83E58290F554F0EFA3F0C2A0C2A4D288
:1000FA00A375E10490DF3BE0FFBF01F890F554E0FF
:10010A00FEA3E090DF06EEF0C2A090FC8CE024FF94
:10011A0092A4E0FF7E00630701EF4E24FF92A375CD
:10012A00E10290DF3BE0FFBF0DF8227E007F0090E6
:10013A00FC28E0FCA3E0FD8E028F03C3EA9CEB9D42
:10014A00503AEE2400FCEF34F0FD90FC26E0F51561
:10015A00A3E0F5168A828B83C007C006C005C004D7
:10016A00124568AA82AB83D004D005D006D0078C8A
:10017A00828D83EAF00EBE00B60F80B322E582902C
:10018A00F556F0E0FFE59CC39FF59CE59C24FAF543
:10019A009CAE9E4306108E9ED2BA22539EEF22AF89
:1001AA0083E58290F55AF0EFA3F090FC21E060130A
:1001BA0090472A1231B890FC21E0F5821231FA7583
:1001CA0082EF2290FC217406F090DF3BE0FFBF1320
:1001DA000280F6C29190F557E0FEA3E0FF90FC88FA
:1001EA00EEF0EFA3F090FC8274F1F0E4A3F090FC3F
:1001FA00187472F074F3A3F090FC80E4F0A3F0900A
:10020A00FC33F090FC7CF090FC32F090FC7E04F021
:10021A00E4A3F090FC7D7402F090F55CE4F09000A9
:10022A000012037090F55AE0FEA3E0FF90F559E042
:10023A00FD7B007C008D017A00C3EB99EC9A505447
:10024A008B02EA75F0F0A42EF9E43FFA90F55C749B
:10025A00F0F089828A83C007C006C005C004C003C3
:10026A00120370AA82D003D004D005D006D007EAC0
:10027A00601B90477CC0021231B8D00290FC21E486
:10028A00F08A82C0021231FAD0028A82220BBB00A3
:10029A00A40C80A190FC8BE0FF7E0030E33390FC3D
:1002AA0088E0FEA3E0FFEE540F602690FC88E0FE93
:1002BA00A3E053060F7F007410C39EFEE49FFF90D5
:1002CA00FC88E0FCA3E0FD90FC88EE2CF0EF3DA357
:1002DA00F090FC88E0FEA3E0FFC374FF9EE49F5009
:1002EA002990FC88E0FEA3E090DF02EEF090DF04A4
:1002FA00E0FF74FC5FF0E0FF7E0043070290DF043A
:10030A00EFF090FC8A7401F0801290FC88E0FEA362
:10031A00E0FF90DF02EEF090FC8AE4F090FC8CE0C3
:10032A0024FF92A0C2A490FC8CE0FF7E0063070128
:10033A00EF4E24FF92A375E1037E607FEA90DF3BD4
:10034A00E0FDBD130280091EBEFF011FEE4F70EDD6
:10035A00D291EE4F700C90FC467413F090479412B1
:10036A0031B875820022AF83E58290F55DF0EFA384
:10037A00F090F55CE0FF240F500A9047A51231B8BF
:10038A007582FF22EF703E90FC32E4F090FC32E07E
:10039A00FE90FC7DE0FDC3EE9D502190FC32E0759D
:1003AA00F0F1A42472F58274F335F0F583E4F09049
:1003BA00FC32E0FE0E90FC32EEF080D090FC32E48B
:1003CA00F07582002290FC21E0FE601DBE061E90A0
:1003DA00FC32E0601890DF3BE0FEBE1302800E9014
:1003EA00FC217407F07582ED227582ED2290FC32B1
:1003FA00E075F0F1A42472FD74F335F0FE8D828E5F
:10040A0083E0600A90FC467418F07582FE228D82A1
:10041A008E8374FFF090FC32E075F0F1A42472FD33
:10042A0074F335F0FE0DBD00010E7C0090F55DE021
:10043A00FAA3E0FB8A158B168C178F037F008B18A3
:10044A008F198D828E838CF0C007C00312448FD01F
:10045A0003D00790FC8BE0FE7D0020E30302051F1A
:10046A0090FC32E075F0F1A42472FD74F335F0FECD
:10047A000DBD00010E90FC5DEBF0EFA3F08D828EB6
:10048A00831241A0AE8290F55CEEF090FC8BE0FF07
:10049A005307047D00BF0442BD003F90FC32E07563
:1004AA00F0F1A42472FD74F335F0FF0DBD00010FC5
:1004BA008E037C0090FC8BE0FA5302F090FC61ED15
:1004CA00F0EFA3F090FC63EBF0ECA3F090FC65EA8C
:1004DA00F08D828F831241DA803B90FC32E075F016
:1004EA00F1A42472FD74F335F0FF0DBD00010F7CF9
:1004FA000090FC8BE0FB5303F090FC68EDF0EFA357
:10050A00F090FC6AEEF0ECA3F090FC6CEBF08D82BC
:10051A008F8312422390FC32E075F0F1A42472FE1C
:10052A0074F335F0FF90F55CE0FD8E828F83F090D6
:10053A00FC32E0FF0F90FC32EFF090FC7DE0FEEF22
:10054A00B5060590FC32E4F075820022AF83E5829D
:10055A0090F55FF0EFA3F090FC21E0FF6014BF017B
:10056A0002800F9047BF1231B890FC21E0F5821249
:10057A0031FA1201A590FC2AE4F0A3F090FC2AE0DB
:10058A00FEA3E0FF8E828F8312066090DF3BE0FFBE
:10059A00BF0DF890DF3AE0FF53077F7E00C3EF9468
:1005AA0060EE64809480402790FC2AE0FEA3E0FF7E
:1005BA000EBE00010F90FC2AEEF0EFA3F0D291904C
:1005CA00000A123E98C29190000A123E9880AD909D
:1005DA00FC217402F090FC47E0FCA3E0FDA3E0A339
:1005EA00E090FC2CECF0EDA3F090F55FE0FEA3E0C8
:1005FA00FF90FC30EEF0EFA3F02290FC21E4F090A3
:10060A00FC47E0FCA3E0FDA3E0A3E090FC2CECF0A7
:10061A00EDA3F02290FC217404F090FC47E0FCA3C7
:10062A00E0FDA3E0A3E090FC2CECF0EDA3F0229017
:10063A00FC217405F090FC34E4F0A3F090FC47E050
:10064A00FCA3E0FDA3E0A3E090FC2CECF0EDA3F00A
:10065A00758200020187AF83E58290F561F0EFA30E
:10066A00F090F561E0FEA3E0FFEE2400F582EF349E
:10067A00F0F583E0FF7E008F828E830200EAAF836B
:10068A00E58290F563F0EFA3F090F563E0FEA3E056
:10069A00FF90F370EEF0EFA3F0222290FC2AE0FE26
:1006AA00A3E0FF0EBE00010F90FC2AEEF0EFA3F0CC
:1006BA00C3EE9470EF9403400790FC2AE4F0A3F091
:1006CA0090FC2AE0FEA3E0FFEE2400F582EF34F06E
:1006DA00F583E0F58222C021C0E0C0F0C082C08369
:1006EA00C007C006C005C004C003C002C001C000E4
:1006FA00C0D075D00090FC1DE02401F0A3E03400C6
:10070A00F090FC22E0FEA3E0FF90FC1DE0FCA3E0D9
:10071A00FDECB5060BEDB5070790FC1DE4F0A3F060
:10072A0090FC1DE0FEA3E0FFBE0005BF0002800BA7
:10073A00BE0105BF000280680208A290FC1DE0FE0F
:10074A00A3E08E077E00AC9C7D00EC4206ED4207DA
:10075A0090FC2EEEF0EFA3F090FC2AE0FEA3E0FF5F
:10076A000EBE00010F90FC2AEEF0EFA3F090FC28D9
:10077A00E0FCA3E0FDC3EE9CEF9D400790FC2AE459
:10078A00F0A3F090DF3BE0FFBF130302099B90FC4C
:10079A002AE0FEA3E0FF8E828F8312066002099B85
:1007AA0090FC21E0FFBF0502800302099B9000191B
:1007BA00123E9890F567741CF090FC2AE0FEA3E0C4
:1007CA0090F568EEF090FC2AE0A3E090F569F090CD
:1007DA00F56A7442F090F56B744CF090F56C7441C4
:1007EA00F090F56D7448F090F56E7442F090F56FE4
:1007FA00744CF090F5707441F090F5717448F09073
:10080A00F5727442F090F573744CF090F57474417B
:10081A00F090F5757448F090F5767442F090F5779B
:10082A00744CF090F5787441F090F5797448F09032
:10083A00F57A7442F090F57B744CF090F57C744133
:10084A00F090F57D7448F090F57E7442F090F57F53
:10085A00744CF090F5807441F090F5817448F090F2
:10086A00F5827420F090FC36741CF0E4A3F090FC3E
:10087A0038F0A3F090FC3AF0A3F090F568123474C3
:10088A0090FC34E0FEA3E0FF0EBE00010F90FC34A2
:10089A00EEF0EFA3F002099B90FC21E0FFBF0302F8
:1008AA008065BF04028008BF0502800302099B908D
:1008BA00FC2CE0FEA3E0FF90FC47E0FAA3E0FBA3D8
:1008CA00E0FCA3E0FD8E008F01E4FEFFEAC398FA84
:1008DA00EB99FBEC9EFCED9FFDC374649AE49BE4E8
:1008EA009CE49D50229047ED1231B890FC2174058A
:1008FA00F090FC47E0FCA3E0FDA3E0FEA3E0FF903C
:10090A00FC2CECF0EDA3F090FC33E075F0F1A4249C
:10091A0072FE74F335F0FF8E828F83E0607390006D
:10092A0019123E9890FC33E075F0F1A42472FE741B
:10093A00F335F0FF90DF04E013B39200E4332EFDA9
:10094A00E43FFC8E828F83E090FC36F0E4A3F090C3
:10095A00FC38F0A3F090FC3AF0A3F08D828C83125D
:10096A00347490FC33E075F0F1A42472F58274F3C8
:10097A0035F0F583E4F090FC33E0FF0F90FC33EFA1
:10098A00F0BF0200400590FC33E4F090480B1231AE
:10099A00B8D0D0D000D001D002D003D004D005D036
:1009AA0006D007D083D082D0F0D0E0D02132329066
:1009BA00FC21E4F090FC32F090FC33F090FC2AF039
:1009CA00A3F090FC267453F0E4A3F090FC2874532F
:1009DA00F0E4A3F090FC2EF0A3F090FC2CF0A3F02E
:1009EA0090FC227406F0E4A3F090FC24F0A3F090AB
:1009FA00FC30F0A3F090FC34F0A3F012013590FC27
:100A0A0021E4F0759DDCAE9E8E9EAE9E4306048E5A
:100A1A009EAECB4306108ECB220209B9900E8212EB
:100A2A001FE690FC47E4F0A3F0A3F0A3F0120A2318
:100A3A0090F583E4F090F5847412F074F8A3F02230
:100A4A0090FC21E0FFBF0003020DB8BF0103020CB6
:100A5A0082BF0203020B7DBF0303020DB8BF04036A
:100A6A00020DB8BF0503020D99BF060122BF40025D
:100A7A008006BF4102804E22C2A0C2A4D2A375E161
:100A8A000490DF3BE0FFBF01F890DF0374E5F090CC
:100A9A00DF047404F090DF077412F090DF08E4F0CA
:100AAA0090DF147410F090DF17E0FF7E004307C058
:100ABA0090DF17EFF090FC217441F090F5847412E6
:100ACA00F074F8A3F090F583E4F090FC34E0FEA310
:100ADA00E0FF90F583E0FDFB7C00C3EB9EEC9F50AA
:100AEA006290DF06EDF0C2A0C2A4D2A375E1049021
:100AFA00DF3BE0FFBF01F8C2A090FC8CE024FF922C
:100B0A00A4E0FF7E00630701EF4E24FF92A375E184
:100B1A000290DF3BE0FFBF0DF8900002123E989072
:100B2A00F584E0FEA3E0FF90F583E02EFEE43FFFAC
:100B3A0090DF3AE0FD8E828F83F090F583E0240106
:100B4A00F08087C2A0C2A4D2A375E10490DF3BE083
:100B5A00FFBF01F890FC34E0FEA3E08E3375340049
:100B6A0090F584E0F535A3E0F536753201758243D8
:100B7A00021AA8E50E7003020C6C90FC45740DF085
:100B8A00539AFEAE0E7F00EE20E403020C6C90FC3A
:100B9A00217403F090FC1FE0FEA3E08E821201870D
:100BAA009048191231B890FC1FE0FEA3E0FF8E8234
:100BBA008F8312321590F811E07E0025E0CEE424EE
:100BCA0012FFEE34F8FE8F828E831231B890F8113C
:100BDA00E0FFB401009201E433FF90F583F0EF24C3
:100BEA0016FDE434FCFE8D828E83E0707290DF0481
:100BFA00E0FE7D0030E0348F057E00ED2DCEE4FD71
:100C0A002412F582EE34F8F583E0FC8C33EDF534EA
:100C1A002412FDEE34F8FE74012DF535E43EF53666
:100C2A00753201758242121AA8802390DF02E0FE13
:100C3A008E33E4F534FEEF2FCEE42412FFEE34F8BF
:100C4A00FE8F358E36753201758242121AA890F5DA
:100C5A0083E0FF2416F582E434FCF5837401F05333
:100C6A000EEFD20110AF02C201750E00A20192AFBF
:100C7A00AE9A4306018E9A22E50E7003020D839006
:100C8A00FC45740DF0539AFEAE0E7F00EE20E4038D
:100C9A00020D8390F811E0FFB40100920190F583F0
:100CAA00E433F090482E1231B890F583E07E0025A7
:100CBA00E0CEE42412FFEE34F8FE8F828E831232E5
:100CCA001590F583E07E0025E0CEE42412FFEE3491
:100CDA00F8FE8F828E831231B890F811E0FFB401CA
:100CEA00009201E433FF90F583F0EF2416FDE4341B
:100CFA00FCFE8D828E83E0707290DF04E0FE7D0040
:100D0A0030E0348F057E00ED2DCEE4FD2412F5820D
:100D1A00EE34F8F583E0FC8C33EDF5342412FDEE65
:100D2A0034F8FE74012DF535E43EF5367532017559
:100D3A008242121AA8802390DF02E0FE8E33E4F585
:100D4A0034FEEF2FCEE42412FFEE34F8FE8F358EF8
:100D5A0036753201758242121AA890F583E0FF2493
:100D6A0016F582E434FCF5837401F0D20110AF0267
:100D7A00C201530EEFA20192AFD20110AF02C2011B
:100D8A00750E00A20192AFAE9A4306018E9A229086
:100D9A00FC34E0FEA3E0FF90FC28E0FCA3E0FDC3E6
:100DAA00EE9CEF9D50012290FC217404F022E50E86
:100DBA0070012290FC45740DF0E50E54307001224A
:100DCA0090F811E0FFB401009201E433FF90F5833B
:100DDA00F0EF2416FDE434FCFE8D828E83E060037E
:100DEA00020E7390DF04E0FE7D0030E0348F057E52
:100DFA0000ED2DCEE4FD2412F582EE34F8F583E001
:100E0A00FC8C33EDF5342412FDEE34F8FE74012D1A
:100E1A00F535E43EF536753201758242121AA8801C
:100E2A003790FC77E0FE600A90FC7AE0FDA3E0FED2
:100E3A00800890DF02E0FCFD7E007C00EF2FCCE40E
:100E4A002412FFEC34F8FC8F358C367532018D3361
:100E5A008E34758242121AA890F583E0FF2416F5A3
:100E6A0082E434FCF5837401F0D20110AF02C201AE
:100E7A00530ECFA20192AF2290F7C3E0FDA3E0FE8A
:100E8A00A3E0FF90F7C8E0FCBC420280030217FE11
:100E9A0090F7C9E0FC24BE50030217F0EC240A8341
:100EAA00F582EC244683F583E473F0F088C6F03BC0
:100EBA00EC0A1D568FB3F694F0F04CCBF2658A9D7E
:100ECA00097DB2F0F0F0F0F0F0F05CDE2C2245F093
:100EDA00F0F0F0F0F0F0F0F0F0F0F0F0F0F0F0F008
:100EEA00F0F0F0F0F0F0F0F0F0F0387217170F11A0
:100EFA0017101011111111111112171715151516B6
:100F0A00161617141517171717171717171717166F
:100F1A001617171717171717171717171717171758
:100F2A001717171717171717171717170F0FC007BE
:100F3A00C006C0051201A5D005D006D00790FC2135
:100F4A007440F08D828E838FF01246C7FC7B00902E
:100F5A00FC34ECF0EBA3F090F7E9EDF0EEA3F075BA
:100F6A008201122EF50217FE90FC21E4F090F7E9B7
:100F7A00EDF0EEA3F0758201122EF50217FE90FC39
:100F8A0021E060099048481231B80217FE8D828E1E
:100F9A00838FF01246C7FC7B0090F586ECF0EBA33A
:100FAA00F08D828E83A3E0FAE4F92CFCEA3BFB90F5
:100FBA00F586ECF0EBA3F08D828E83A3A3A3A3E0C6
:100FCA00FA8A0889098D828E83A3A3A3A3A3E0FAD0
:100FDA00E42508F508EA3509F50990FC1AE4F0A3B6
:100FEA00F074062DF9E43EFA90FC36ECF0EBA3F02F
:100FFA0090FC38E4F0A3F090FC3AE508F0E509A388
:10100A00F089828A83C007C006C005123474AC8294
:10101A00D005D006D0078D828E838FF0EC12453032
:10102A0090F7E9EDF0EEA3F0758201122EF50217A2
:10103A00FE8D828E838FF01246C790FC7AF0E4A36D
:10104A00F08D828E83A3E0FB7C0090FC7AE0F9A30A
:10105A00E0FA90FC7AEC29F0EB3AA3F090FC7AE003
:10106A00FBA3E0FC4B604890FC777401F090FC789D
:10107A00E0FBA3E0FC4B704B1233A990FC7AE0FB37
:10108A00A3E0FC90FC78EBF0ECA3F090FC78E0FB9A
:10109A00A3E090DF02EBF090DF04E0FC74FC5CF06C
:1010AA00E0FC43040290DF04ECF012335580149004
:1010BA00FC77E4F090FC78F0A3F090FC7AF0A3F0CF
:1010CA001233A990F7C8E0FC90F7C9E0F5327535FC
:1010DA007A7536FC7533017534008C82121AA802AF
:1010EA0017FE8D828E838FF01246C790FC8BF0908C
:1010FA00F7E9EDF0EEA3F0758201122EF50217FE64
:10110A0090F7E9748BF074FCA3F0758201122EF546
:10111A000217FE90FC8BE0FC5304F090FC59740615
:10112A00F090FC5AECF08D828E838FF0C007C006D7
:10113A00C00512413FD005D006D00790F7E9EDF07F
:10114A00EEA3F0758210122EF50217FE90FC8BE0CA
:10115A00FC5304F090FC597404F090FC5AECF08DA6
:10116A00828E838FF0C007C006C00512413FD005AA
:10117A00D006D00790F7E9EDF0EEA3F075821012D1
:10118A002EF50217FE8D828E838FF01246C790FCD1
:10119A008CF0E0FC74015CF090F7E9EDF0EEA3F05E
:1011AA00758201122EF50217FE90F7E9748CF0741D
:1011BA00FCA3F0758201122EF50217FE8D828E8332
:1011CA008FF01246C7FC7B008C828B83C007C00657
:1011DA00C005120688D005D006D00790F7E9EDF0D1
:1011EA00EEA3F0758201122EF50217FE90FC21E0A3
:1011FA00601C8D828E838FF074EF12453090F7E970
:10120A00EDF0EEA3F0758201122EF50217FE8D8223
:10121A008E838FF01246C7FC7B0090F586ECF0EBCC
:10122A00A3F08D828E83A3E0FAE42CFCEA3BFB90C8
:10123A00F586ECF0EBA3F08D828E83A3A3E0FA90FF
:10124A00FC1AE4F0A3F074032DF8E43EF990F55784
:10125A00ECF0EBA3F090F559EAF088828983C00795
:10126A00C006C0051201A9AC82D005D006D0078DF0
:10127A00828E838FF0EC12453090F7E9EDF0EEA301
:10128A00F0758201122EF50217FE8D828E838FF081
:10129A001246C7FB7C0090F586EBF0ECA3F0EB4C12
:1012AA00600302138E90FC88E0F9A3E0FA49601CFF
:1012BA0090DF3BE0FABA1314900028C007C006C0BA
:1012CA0005123E98D005D006D00780D990FC88E058
:1012DA00F9A3E0FA49606B90486DC007C006C005E3
:1012EA001231B890FC88E0F9A3E0FA89828A831265
:1012FA00321590F372E0F5821231FA90F463E0F558
:10130A00821231FAD005D006D00790FC467412F04A
:10131A008D828E838FF074EC124530C291C007C063
:10132A0006C005123330D005D006D00790FC21E460
:10133A00F090F7E9EDF0EEA3F0758201122EF502B6
:10134A0017FEC29190FC21E4F08D828E838FF012F9
:10135A004530904881C007C006C0051231B890FCDC
:10136A001AE0F9A3E0FA89828A83123215D005D0ED
:10137A0006D00790F7E9EDF0EEA3F0758201122E80
:10138A00F50217FE90FC21E0FABA06028061904845
:10139A0091C007C006C0051231B8D005D006D007E3
:1013AA0090FC46E0FABA121B8D828E838FF074ECA1
:1013BA0012453090F7E9EDF0EEA3F0758201122E96
:1013CA00F5801F90FC467417F08D828E838FF0741F
:1013DA00EF12453090F7E9EDF0EEA3F075820112B5
:1013EA002EF5C29112333090FC21E4F00217FE74FC
:1013FA00012DF9E43EFA90F55CEBF089828A83C00C
:10140A0007C006C005120370AC82D005D006D0070B
:10141A008D828E838FF0EC1245308D828E838FF011
:10142A001246C7FBEC603BBBFE02803690489AC06E
:10143A0007C006C0051231B8D005D006D0078D8284
:10144A008E838FF01246C7F582C007C006C0051208
:10145A0031FAC291123330D005D006D00790FC2160
:10146A00E4F090F7E9EDF0EEA3F0758201122EF5A3
:10147A000217FE8D828E838FF01246C7FB7C009086
:10148A00F586EBF0ECA3F0C374F09BE49C50199042
:10149A0047A51231B890F7E97486F074F5A3F07590
:1014AA008201122EF50217FE90FC32E075F0F1A4CB
:1014BA002472F974F335F0FA89828A83E06019900C
:1014CA0048A71231B890F7E97486F074F5A3F0755D
:1014DA008201122EF50217FE8B0089828A83E8F0B8
:1014EA0090FC32E075F0F1A42472F974F335F0FA45
:1014FA0009B900010A890A8A0B750C0074012DF9D1
:10150A00E43EFA89158A167517008B188C19850A14
:10151A0082850B83850CF012448F90FC32E0FC0C20
:10152A0090FC32ECF0BC0200400590FC32E4F090F2
:10153A00F7E97486F074F5A3F0758201122EF502AC
:10154A0017FE8D828E838FF01246C7FC7B0090FCBB
:10155A0026ECF0EBA3F090FC26E0F9A3E0FAC374C2
:10156A00709C74039B402E74022DFBE43EFC8B1589
:10157A008C1675170089188A1990F00075F00012F8
:10158A00448F90F7E97426F074FCA3F07582021276
:10159A002EF50217FE90F7E974C8F07448A3F075A7
:1015AA008208122EF50217FE90FC26E0FBA3E090BB
:1015BA00F7E97400F074F0A3F08B82122EF502178B
:1015CA00FE1206A57B008B8312066090FC2AE0FBC4
:1015DA00A3E0FC90F7E9EB2400F0EC34F0A3F075FB
:1015EA008201122EF50217FE8D828E838FF012462B
:1015FA00C7FC7B008C828B83C007C006C005120023
:10160A00EAD005D006D00790F7E9EDF0EEA3F07521
:10161A008201122EF50217FE758200C007C006C0AD
:10162A0005120187D005D006D00790F7E9EDF0EE54
:10163A00A3F0758201122EF50217FEC007C006C07C
:10164A00051201A5D005D006D00790F7E9EDF0EE16
:10165A00A3F0758201122EF50217FE8D828E838FFA
:10166A00F01246C7FC7B0090FC22ECF0EBA3F09052
:10167A00F7E9EDF0EEA3F0758201122EF50217FEDE
:10168A0090F7E97422F074FCA3F0758204122EF527
:10169A000217FE8D828E838FF0C007C006C0051226
:1016AA003177D005D006D0078D828E838FF012460F
:1016BA00C7F582C007C006C0051231FAD005D006A8
:1016CA00D0078D828E838FF01246C7FC7B008C1563
:1016DA008B168B177518158B1990FC2175F000C0A5
:1016EA0007C006C00512448FD005D006D00790F770
:1016FA00E9EDF0EEA3F0758215122EF50217FE90B1
:10170A00FC1DE0FBA3E0FC90FC24EBF0ECA3F090C2
:10171A00F7E97421F074FCA3F0758215122EF50214
:10172A0017FE8D828E838FF01246C7FC7B008C8257
:10173A008B83C007C006C005120556D005D006D057
:10174A000790F7E9EDF0EEA3F0758201122EF5028B
:10175A0017FE90FC47E0F9A3E0FAA3E0A3E090FCAF
:10176A002CE9F0EAA3F08D828E838FF01246C7FC33
:10177A0090FC21F090FC21E0FBEC24FA4046EB2B94
:10178A0090178E73800A8008800680268024801134
:10179A00C007C006C0051201A5D005D006D0078033
:1017AA0023C007C006C005120639D005D006D007E7
:1017BA008012758200C007C006C005120187D005D5
:1017CA00D006D00790F7E9EDF0EEA3F0758201128A
:1017DA002EF5802090F7E97421F074FCA3F075824D
:1017EA0001122EF5800E90F7E9EDF0EEA3F0758266
:1017FA0001122EF5900000222290F7D1E0FFBF01DE
:10180A003990F7B1E0FEA3E0FF90F7D4E0FCA3E043
:10181A00FD90F7B4E0FAA3E0FBEA4B601D8E828FDD
:10182A0083E0F9A3AE82AF838C828D83E9F0A3AC07
:10183A0082AD831ABAFF011B80DF90F7BAE054FD2C
:10184A00F090DE11E0FF43070890DE11EFF022AEC0
:10185A0082AF83E0FD7C0020E7030219548E828F59
:10186A0083A3E0FD601DBD0102802ABD0202803B08
:10187A00BD0302805ABD04028076BDFE030219161A
:10188A0002195475370275380090FC4575F000123C
:10189A001D8302195490DE00E0FD7C007539288C06
:1018AA003A8D828C83121DF70219548E828F83A37C
:1018BA00A3E0FCA3E0FD74062EF582E43FF583E085
:1018CA00F539A3E0F53A8C828D83121DF7807B8E61
:1018DA00048F057B0074062EF582E43FF583E0F55C
:1018EA0037A3E0F5388C828D838BF0121D83805AE2
:1018FA0090F7B1E0FBA3E0FCA3E0FD753910753A5F
:10190A00008B828C838DF0121DF7803E74022EFEAE
:10191A00E43FFF7D00754BD0754C48754D807515B9
:10192A00048D168E828F838DF0123F4BE58285835C
:10193A00F045F06012D29190012C123E98C291901B
:10194A00012C123E98800375C9839000002290DF13
:10195A002FE4F090DF30F090DF31F090DF00740C6C
:10196A00F090DF01744EF090DF0274FFF090DF0315
:10197A007440F090DF04E4F090DF05F090DF06F0A9
:10198A0090DF077406F090DF08E4F090DF09742412
:10199A00F090DF0A743AF090DF0B74F1F090DF0CEC
:1019AA0074CAF090DF0D74A3F090DF0E7401F0900A
:1019BA00DF0F7423F090DF107411F090DF1174368A
:1019CA00F090DF127407F090DF13740FF090DF14B9
:1019DA007418F090DF1514F090DF16746CF090DF35
:1019EA00177403F090DF187440F090DF197491F0C7
:1019FA0090DF1A7456F090DF1B7410F090DF1C749D
:101A0A00E9F090DF1D742AF090DF1EE4F090DF1FEA
:101A1A00741FF090DF237488F090DF247431F09003
:101A2A00DF257409F090DF2E74C0F090DF07C4F050
:101A3A0090DF097425F090DF0A7495F090DF0B743B
:101A4A0055F090DF1A74B6F090DF1B7410F090DF37
:101A5A001C74EAF090DF1D742AF090DF1EE4F09007
:101A6A00DF1F741FF022123FCA024007121A7012B7
:101A7A00325F124038121D4D1233D6120A26121D39
:101A8A007DD2AF121C07D291900002123E98C291E9
:0E1A9A0090000A123E98122F26120A4A80F877
:10472A0043616E6E6F742063616C6C207472616E8B
:10473A00736D69745F6C6F6E67207768696C65204A
:10474A004648535320486F7070696E67206F722015
:10475A00616C72656164792070726F6365737369E5
:10476A006E67207472616E736D69745F6C6F6E67C9
:10477A0021004D41435F747828292072657475724F
:10478A006E6564206572726F72006E65766572205E
:10479A00656E7465726564205458004648535378B0
:1047AA006D6974206D65737361676520746F6F201E
:1047BA006C6F6E67004648535320737461746520AA
:1047CA00656E746572696E672053594E4348494E47
:1047DA00472066726F6D2077726F6E6720737461FF
:1047EA0074650053594E43485F4D41535445522016
:1047FA002D3E2053594E43494E474D41535445523D
:10480A000046485353786D697420646F6E65006E74
:10481A006574776F726B207061636B657428737946
:10482A006E6329006E6574776F726B207061636BBB
:10483A00657428646973636F766572792900637297
:10484A0061702C20706C65617365207573652046F4
:10485A00485353786D6974282920696E73746561A9
:10486A0064210064726F706F75742066696E616C82
:10487A0020776169742100746F74616C20627974A5
:10488A0065732074783A00756E64657272756E008D
:10489A00627566666572206572726F7200737469FA
:1048AA006C6C2077616974696E67206F6E2074681A
:1048BA0065206C617374207061636B6574004E4F80
:0B48CA00204445414C005253544E0066
:101AA800AF827E017D0090DE0E7405F090FC4574D7
:101AB80012F0EE7006ED7003021BFD7B107C279080
:101AC800DE11E0F97A0030E00D90FC467401F01B5D
:101AD800BBFF011C80E9EB4C7014D2909003E81214
:101AE8003E98C2909003E8123E9890FFFF22BE01F4
:101AF8002E7E0090DE2A7440F0EFF0E532F0E533F8
:101B0800F0E534F0C3E533943BE534940040087BBA
:101B18003B7C007D018021AB33AC347D008019C350
:101B2800E5339440E534940040087B407C007D0117
:101B38008006AB33AC347D00AA2974802AA9D64923
:101B4800F5D6852682852783AA368A01E9F0852677
:101B580082852783A3E535F0852682852783A3A37D
:101B680074DEF0852682852783A3A3A3742AF085D3
:101B78002682852783A3A3A3A3A3EBFAF085268255
:101B8800852783A3A3A3A3E054E0F08526828527B5
:101B980083A3A3A3A3A3A3A3E0543F4440F08526B3
:101BA80082852783A3A3A3A3A3A3A3E054CFF0E52F
:101BB8002942D6E52942D7E52955D160FAE529F425
:101BC80052D190DE0E7405F090DE11E0F97A0043F0
:101BD800010190DE11E9F0E533C39BF533E5349C50
:101BE800F534EB2535F535EC3536F53690FC45748E
:101BF80013F0021ABA90FC457414F090000022E524
:101C0800227005122F2680F72253BE7F00AEBE43F6
:101C180006808EBE90DE0B74F7F090DE0774FFF03E
:101C280090DE09F0AE8C4306108E8C538CFED2BD2C
:101C3800AE9A4306028E9A758900C2C5758B00C29A
:101C4800E8AEA94306028EA9AEB94306028EB9854D
:101C58002682852783A3A3A3A3E054E0F0852682E8
:101C6800852783A3A3A3A3A3A3E0549F4420F085BF
:101C78002682852783A3A3A3A3A3A3A3E04408F0F4
:101C8800852682852783A3A3A3A3A3A3A3E054FC4B
:101C98004401F090DE01E0FF74FE5FF0E4F525F505
:101CA80023F524F52290DE0EF090DE107404F090F7
:101CB800DE13F090F7BBE4F090F7BAF090F7AFF0CE
:101CC800A3F090F7B17488F074F5A3F0E4A3F09052
:101CD800F7B4F0A3F090F7B6F090F7B7F090F7B834
:101CE800F0A3F090DE0E7405F090DE107408F0900A
:101CF800DE13F090DE12E0FF43070190DE12EFF0F2
:101D080090DE15E0FF43070190DE15EFF090F7CD68
:101D1800E4F090F7CCF090F7C1F0A3F090F7C3741B
:101D2800A8F074F5A3F0E4A3F090F7C6F0A3F09040
:101D3800F7C8F090F7C9F090F7CAF0A3F0AE9A434D
:101D480006028E9A22123283858228AF288FF005E8
:101D5800F07401800225E0D5F0FBF529E52875F03F
:101D680008A424F9F52674F735F0F52790FC457496
:101D780002F0021C11D29122C29122AFF0AE83E58B
:101D88008290F7D6F0EEA3F0EFA3F090F7BBE060F7
:101D980034D2909003E8123E98C2909003E8123E25
:101DA80098D2909003E8123E98C2909003E8123EB1
:101DB80098D2909003E8123E98C2909003E8123EA1
:101DC8009890FFFF2290F7D6E0FDA3E0FEA3E0FF86
:101DD80090F7ACEDF0EEA3F0EFA3F090F7AFE53796
:101DE800F0E538A3F090F7BB7401F090000022AF43
:101DF80083E58290F7D9F0EFA3F090F7BBE0603469
:101E0800D2909003E8123E98C2909003E8123E9850
:101E1800D2909003E8123E98C2909003E8123E9840
:101E2800D2909003E8123E98C2909003E8123E9830
:101E380090FFFF2290F7D9E0FEA3E0FF7D0090F726
:101E4800ACEEF0EFA3F0EDA3F090F7AFE539F0E5D5
:101E58003AA3F090F7BB7401F0900000227F007E57
:101E68000290DE0EE4F090F7AFE0FCA3E0FDC3ECD7
:101E78009420ED940040047B2080068C037F017E33
:101E88000A8B017A00ECC399FCED9AFD90F7AFEC50
:101E9800F0EDA3F08B05ED603690F7ACE0FAA3E027
:101EA800FBA3E0FC8A828B838CF01246C790DE206D
:101EB800F090F7ACE0FAA3E0FBA3E0FC0ABA00015B
:101EC8000B90F7ACEAF0EBA3F0ECA3F01D80C79001
:101ED800DE11E0FD4EF0EF600590F7BBE4F02290D4
:101EE800F7BB7402F07582002290F7B1E0FDA3E021
:101EF800FEA3E0FF90DE11E0FC60F990DE0EE4F056
:101F080090DE16E0FC7B0090F7B4ECF0EBA3F090C9
:101F1800F7BAE0FC7B0030E11190F7BB7403F09056
:101F2800DE11E04404F090FFFF2290F7BAE044028B
:101F3800F090F7B4E0FBA3E0FCC374209BE49C5052
:101F48001CD29090012CC007C006C005123E98C252
:101F58009090012C123E98D005D006D00790F7B487
:101F6800E0FBA3E0FC8D07EB4C601690DE20E0FD63
:101F78008F828E83F0A3AF82AE831BBBFF011C80D0
:101F8800E6E52C452D6009852C82852D8312008974
:101F980090F7B4E0FEA3E0FFC3EE9420EF94005066
:101FA80023E52A452B6009852A82852B831200891F
:101FB80090DE11E0FF7E0043070890DE11EFF090FD
:101FC800F7BBE4F090DE11E04440F090F7B4E0FE97
:101FD800A3E08E82F5832285822E85832F22858237
:101FE800308583312275370175380090002575F0EA
:101FF80040021D83AFF0AE83E58290F7DBF0EEA3DD
:10200800F0EFA3F090F7DBE0FDA3E0FEA3E0FF74A0
:10201800022DFDE43EFE8D828E838FF01246C7FDB1
:10202800A31246C78D2575220122AF827D0E7E49F7
:10203800BF030874EEB515037515048D828E83A34E
:10204800E090F7DEF0AC1590F7DEE0FBBBFF028016
:102058003EEBB50723EC700890F7DE74FFF080E7DD
:102068001C8D828E83E02DFDE43EFE8D828E83A33F
:10207800E0FB90F7DEF080CF8D828E83E02DFDE4CB
:102088003EFE8D828E83A3E0FB90F7DEF080B88D54
:10209800828E8322AFF0AE83E58290F7DFF0EEA365
:1020A800F0EFA3F090F7DFE0FDA3E0FEA3E0FF74FC
:1020B800022DFDE43EFE8D828E838FF01246C7FB13
:1020C800A31246C7FCF97A00B90205BA0002801BC0
:1020D800B90757BA005474AF5BF97A008D828E83C2
:1020E8008FF0E9124530A3EA12453090F7DFE0FDA2
:1020F800A3E0FEA3E0FF74022DFDE43EFE8D828E78
:10210800838FF01246C7FDA31246C7F5828D1512BC
:102118002032AE82AF8390F7E2EEF0EFA3F08E822A
:102128008F83A3A3E0FE7F00801C8C828B15122076
:1021380032AC82AD8390F7E2ECF0EDA3F08C828DA7
:1021480083E0FCFE7F0090F7DFE0FCA3E0FBA3E068
:10215800FD74062CFCE43BFB8C828B838DF01246CD
:10216800C7FCA31246C7FDC3EC9EED9F50048C0626
:102178008D07EE4F700F90DE11E0FD7C00430520C7
:1021880090DE11EDF090F7E2E0FCA3E0FD8E398FD0
:102198003A8C828D83021DF790DE0EE4F090DE11FA
:1021A800E0FE7F0030E41490F7BBE4F090DE11E02D
:1021B800FD7C0043058090DE11EDF0EE30E22890C2
:1021C800DE11E4F090FC467404F090F7BBE4F0D222
:1021D80090900014C007C006123E98C29090001458
:1021E800123E98D006D00790F7BBE0FDBD031DD284
:1021F80090900032C007C006123E98C290900032FC
:10220800123E98D006D00790F7BBE4F090F7BBE0F9
:10221800600302253AEE20E00302253A90DE0EE440
:10222800F090DE16E0FFFE7B3B7C007D40EE601602
:1022380090DE20E0FA8B828C838DF0124530A3ABC0
:1022480082AC831E80E7AE3B8E047D00EC20E70362
:102258000223DC74605CFA7B00BA0005BB000280D4
:102268001EBA2006BB0003022392BA4006BB000335
:102278000223A4BA6006BB00030223C90225167410
:102288001F5EFF7041AB3CBB0002801CBB06028096
:1022980005BB0826800C90003B75F04012209C027C
:1022A8002516121FED02251675370275380090485D
:1022B800EC75F080121D8302251690003B75F040E6
:1022C800123176022516BF0143AB3CBB00028005E4
:1022D800BB0A2680127537027538009048EC75F0F5
:1022E80080121D830225167537017538009048EF56
:1022F80075F080121D8302251690DE11E04420F04F
:1023080090003B75F040123176022516BF0234ABBF
:102318003CBB00028008BB120302251680127537E9
:10232800027538009048EC75F080121D830225165E
:1023380090DE11E04420F090003B75F040123176B9
:10234800022516BF0329E4B53C127537027538001B
:102358009048EC75F080121D8302251690DE11E07E
:102368004420F090003B75F040123176022516901B
:10237800003B75F04012317690DE11E0FB7A0043A5
:10238800032090DE11EBF002251690DE11E0FB7AB7
:102398000043032090DE11EBF0022516E52E452FB1
:1023A80060131223AF800BC02EC02F90003B75F036
:1023B800402202251690003B75F040122551022557
:1023C8001690DE11E04420F090003B75F040123189
:1023D800760225165304607D00BC0005BD0002800E
:1023E8001EBC2006BD00030224C9BC4006BD000374
:1023F8000224E3BC6006BD0003022506022516740C
:102408001F5EFF704EAE3CBE0103022516BE0303DD
:10241800022516BE0502800BBE0703022516BE095B
:1024280017800990DE00E53DF002251690003B7507
:10243800F040121FFC02251690003B75F040123147
:102448007690DE11E0FE7D0043062090DE11EEF06E
:10245800022516BF012FAE3CBE0103022516BE039E
:1024680003022516BE110302251690003B75F040A5
:1024780012317690DE11E0FE7D0043062090DE11D9
:10248800EEF0022516BF0227AF3CBF010302251656
:10249800BF0302807990003B75F04012317690DEE0
:1024A80011E0FF7E0043072090DE11EFF0805F907F
:1024B800DE11E04420F090003B75F0401231768048
:1024C8004D90003B75F04012317690DE11E0FF7EB2
:1024D8000043072090DE11EFF08033E52E452F6092
:1024E800121224EE8028C02EC02F90003B75F040B9
:1024F80022801B90003B75F040122551801090DE21
:1025080011E04420F090003B75F04012317690DEE7
:1025180011E0FF7E0043074090DE11EFF0E54145F2
:1025280042700F90DE11E0FF7E0043070890DE1135
:10253800EFF090F7BBE0FFBF0103121E6590F7BBF9
:10254800E0FFBF0203021EF122AFF0AE83E58290E6
:10255800F7E4F0EEA3F0EFA3F090F7E4E0FDA3E0DA
:10256800FEA3E0FF8D828E838FF01246C7FC7B00AE
:1025780020E70302274E74012DFAE43EFB8F048AFC
:10258800828B838CF01246C7FC6024BC0102803128
:10259800BC02028042BC03028079BC0403022650BC
:1025A800BCFD0302266DBCFE030227080227B47592
:1025B800370275380090FC4575F000121D8302271C
:1025C800B490DE00E0FC7B007539288B3A8C828B56
:1025D80083121DF70227B474022DFAE43EFB8F0420
:1025E8008A828B838CF01246C7FAA31246C7FB7403
:1025F800062DF8E43EF98F04888289838CF0124610
:10260800C7F539A31246C7F53A8A828B83121DF79C
:102618000227B48D028E038F048A438B448C457441
:10262800062DF8E43EF98F04888289838CF01246DF
:10263800C7F537A31246C7F5388543828544838595
:1026480045F0121D830227B490F7B1E0FAA3E0FB2E
:10265800A3E0FC753910753A008A828B838CF012DE
:102668001DF70227B474042DFAE43EFB8F048A8216
:102678008B838CF01246C7FAA31246C7FBBA0446EE
:10268800BB004374954449603D74062DFBE43EFA53
:102698008F048B828A838CF01246C7FBA31246C72D
:1026A800FC904995E493F97A00C3E99BEA9C500CA5
:1026B80089398A3A904995121DF7800A8B398C3AE4
:1026C800904995121DF790F7E4E0FAA3E0FBA3E028
:1026D800FC74042AFAE43BFB8A828B838CF0124652
:1026E800C7FAA31246C7FBBA0505BB00028003025E
:1026F80027B4E4F539F53A900000121DF70227B423
:1027080074022DFAE43EFB8F0490FC4B74F1F074D4
:1027180048A3F07480A3F07515047516008A828B9F
:10272800838CF0123F4BE5828583F045F06012D22E
:102738009090012C123E98C29090012C123E9880E5
:102748006B75C983806690F7D1E0FCBC01567402B2
:102758002DFDE43EFE8D828E838FF01246C7FDA3C9
:102768001246C7FE90DE0EE4F090DE16E0FF7C0015
:102778007514088F828C83C007C006C005C0041278
:102788003EE4D004D005D006D007EF4C601690DEAA
:1027980020E0FB8D828E83F0A3AD82AE831FBFFF46
:1027A800011C80E690F7BAE054FDFFF0900000228B
:1027B80090F7CCE0FF7E0030E10A90FC467405F00B
:1027C80090FFFF2290DE0E7405F090DE16E0FF8F7A
:1027D8004675470090DE17E0FCE42546F546EC35E3
:1027E80047F54790F7CAE0FCA3E0FD4C705890F716
:1027F800C6E4F0A3F090DE2AE090F7C8F090DE2A55
:10280800E090F7C9F090DE2AE0FD7C0090F7CAED71
:10281800F0ECA3F090DE2AE0FAE4FB2DFDEA3CFCA4
:1028280090F7CAEDF0ECA3F0E54624FCF546E54741
:1028380034FFF547C374049D74029C500990F7CA8D
:102848007404F003A3F0E52955D16012D2909000EA
:1028580014123E98C290900014123E9880E890F7A7
:10286800C3E0FBA3E0FCA3E090F7C6E0FAA3E0FF17
:10287800EA2BFBEF3CFCAF2974802FAED64EF5D681
:1028880085268285278374DEF0852682852783A3A3
:10289800742AF0852682852783A3A38B068C078F4D
:1028A80006EEF0852682852783A3A3A3EBF0852671
:1028B80082852783A3A3A3A3A3A3A3E0543FF08502
:1028C8002682852783A3A3A3A3A3A3A3E054CF446D
:1028D80010F074052526FEE43527FF90DE16E08EFD
:1028E800828F83F074042526FEE43527FF90DE17D7
:1028F800E08E828F83541FF5F0E054E045F0F090AD
:10290800F7C6E0FEA3E0FFEE2546FCEF3547FDC322
:1029180074049C74029D500B7404C39EF5467402A3
:102928009FF547C374409546E49547502890FC4668
:102938007406F090DE14E0FD74FE5DF075140490EA
:102948000005123EE4751410854682854783123EC1
:10295800E490FFFE22E52942D6E52942D7E5462E36
:10296800FEE5473FFF90F7C6EEF0EFA3F0E52955E7
:10297800D160FAE529F452D190F7C6E0FEA3E0FF52
:1029880090F7CAE0FCA3E0FDC3EE9CEF9D402C90BD
:10299800F7CCE04402F090F7CAE4F0A3F090DE0E22
:1029A8007405F0AE2374BF5524FF8E238F2490DE68
:1029B80014E0FF74FE5FF09000012290DE0E7405B3
:1029C800F0AE2374BF5524FF8E238F2490DE14E0CD
:1029D800FF74FE5FF09000002290F7CCE0FF7E00CD
:1029E80020E1012290F7C3E0FDA3E0FEA3E0FF9001
:1029F800F7E7EDF0EEA3F090F7C8E0F54F74FFB5F8
:102A08004F028003022ECD90F7C9E0FBBB80005037
:102A180003022EAFEB246C5003022EAFEB2480FA96
:102A2800240A83F582EA241883F583E4735DF28A25
:102A3800C7A5DEFF164F38AFAFAFAFB7EA49AFAFA4
:102A4800622A2A2C2C2B2C2C2D2D2D2E2E2E2E2D81
:102A58002D2E2E2E2E8D828E838FF01246C7FA745D
:102A6800012DF54AE43EF54B8A4D754E0090F7CAA4
:102A7800E54DF0E54EA3F0854A82854B83E0F54CA1
:102A88007401254AF54FE4354BF550A94C8902E409
:102A9800F9254DF54DEA354EF54E90F7CAE54DF05E
:102AA800E54EA3F0854F82855083E0F8854A8285FC
:102AB8004B83A3A388488949E0FAE42548F548EA06
:102AC8003549F54985483585493690F7C8E0FA9083
:102AD800F7C9E0F532854D33854E348A82121AA83B
:102AE80090F7CAE4F0A3F0022EC58D828E838FF092
:102AF8001246C7FA8D828E83A38A48754900E0FA88
:102B080074022DF54FE43EF5508A018902E4254808
:102B1800F548EA3549F549A848AA4990F7CEE8F0BA
:102B2800EAA3F090F7C6E0F9A3E0FAE924FEF54835
:102B3800EA34FFF54985484D85494EE54D454E60D7
:102B48003D90F7CEE0F54AA3E0F54B7401254AF92C
:102B5800E4354BFA90F7CEE9F0EAA3F0854F828589
:102B68005083E0FAA385824F858350854A82854B3E
:102B780083EAF0154D74FFB54D02154E80BD90F7F0
:102B8800C8E0FA90F7C9E0F5327535CA7536F775B9
:102B980033027534008A82121AA8022EC590F7CC27
:102BA800E0F97A0020E23C8D828E838FF01246C7CE
:102BB800FA8D828E83A38A48754900E0FA90F7E778
:102BC80074022DF0E43EA3F08A018902E4F9254855
:102BD800F548EA3549F549A848AA4990F7CEE8F0FA
:102BE800EAA3F090F7CAE0F9A3E0FA89488A49C352
:102BF80074409548E495495006754840754900E980
:102C0800C39548F9EA9549FA90F7CAE9F0EAA3F0BA
:102C180090F7E7E0F54DA3E0F54E85484F8549501C
:102C2800E54F4550603D90F7CEE0F54AA3E0F54BFF
:102C38007401254AF9E4354BFA90F7CEE9F0EAA396
:102C4800F0854D82854E83E0FAA385824D85834EBB
:102C5800854A82854B83EAF0154F74FFB54F0215FC
:102C68005080BD90F7C8E0FA90F7C9E0F5327535A5
:102C7800CA7536F77533027534008A82121AA802AB
:102C88002EC5D290900002C007C006C005123E981B
:102C9800C290900002123E98D005D006D00790F757
:102CA800C8E0FA90F7C9E0F53290F7C6E0F533A32B
:102CB800E0F5348D358E368A82121AA8022EC57533
:102CC80035F67536488B3275330D753400854F826D
:102CD800121AA8022EC590FC47E0F8A3E0F9A3E079
:102CE800A3E0883589368B32753304753400854FF7
:102CF80082121AA8022EC57535DE7536488B3275D4
:102D0800330E753400854F82121AA8022EC590F72B
:102D1800C6E0F533A3E0F5348B328D358E36854F1A
:102D280082121AA89000C8123E98123292022EC53A
:102D38007535D57536488B32753309753400854F2E
:102D480082121AA8022EC58D828E838FF01246C772
:102D5800FC74012DF9E43EFABC0202800ABC0302AD
:102D68008021BC0429800DC002C001123355D00156
:102D7800D002801AC290C002C0011233A9D001D07B
:102D880002800BC002C00112337AD001D00290F742
:102D9800C8E0FC90F7C9E0F53290F7C6E0F533A338
:102DA800E0F53489358A368C82121AA8022EC5902D
:102DB800F7CA7401F0E4A3F07535367536DF90F77D
:102DC800C8E0FC90F7C9E0F53290F7CAE0F533A304
:102DD800E0F5348C82121AA890F7CAE4F0A3F00246
:102DE8002EC58D028E048C017C0090FC4B7404F07F
:102DF8007449A3F07480A3F07515098C168A82892A
:102E0800838CF0C007C006C005123F4BE58285835E
:102E1800F0D005D006D00745F06003022EC575C96D
:102E28008090F7C8E0FC90F7C9E0F53290F7C6E06B
:102E3800F533A3E0F5348D358E368C82121AA880CE
:102E48007C90FC45E4F090FC46F090F7E9EDF0EE5C
:102E5800A3F0758202122EF580638D828E838FF027
:102E68001246C7FC74012DF9E43EFABC0002800B3F
:102E7800BC010F90FC8E7401F0800C90FC8EE4F085
:102E8800800590FC8EE4F090F7C8E0FC90F7C9E06C
:102E9800F53290F7C6E0F533A3E0F53489358A3684
:102EA8008C82121AA8801690F7C6E0F533A3E0F5D5
:102EB800348B328D358E36854F82121AA890F7CC16
:102EC800E054FDF022E530453160198530828531C6
:102ED80083120089AE82AF83EE4F701090F7CCE07A
:102EE80054FDF02290F7CCE054FDFFF022E58290EB
:102EF800F7EBF090F7CCE054FDF090F7C8E0FF90C6
:102F0800F7C9E0F53290F7EBE0FE8E3375340090A8
:102F1800F7E9E0F535A3E0F5368F82021AA8E52334
:102F280030E01775220274FE5523FEAF248E238FDE
:102F380024AEBE7F004306018EBEE5235406602DF5
:102F480090FC45740AF075220374FD5523FEAF24E6
:102F58008E238F2490DE01E04404F0900008123E96
:102F68009890DE01E0FF74FB5FF075220190DE0EA1
:102F7800E4F090DE11E0FF7E0030E21A90DE11E00E
:102F8800FF74DB5FF090F7AFE4F0A3F090F7B4F0D4
:102F9800A3F090F7BBF090DE0E7405F090DE11E020
:102FA800FF7E0030E52090DE11E0FF74CF5FF090E7
:102FB800FC467408F090F7C1E4F0A3F090F7C6F06F
:102FC800A3F090F7CDF090DE14E0FF7E0030E6200D
:102FD80090DE14E0FF749F5FF090FC467408F09058
:102FE800F7C1E4F0A3F090F7C6F0A3F090F7CDF0A6
:102FF800E52320E2057404B52214121C1190FC4547
:10300800740BF074FB5523FEAF248E238F24E52325
:1030180030E4111221A074E75523FE740F5524FFE4
:103028008E238F24E52430E65490FC45740CF0126E
:1030380027B8AE82AF83BEFE41BFFF3E90F7EC7467
:1030480006F0E4A3F090F7C8E0FF90F7C9E0F53286
:103058007535EC7536F77533027534008F82121AA0
:10306800A890F7C8E0FF7535EC7536F7753201752D
:1030780033027534008F82121AA81229E1E523540D
:10308800E07006E52454BD602990FC467409F0758B
:103098001408900044123EE4852382852483751425
:1030A80010123EE474E05523FE74BD5524FF8E23B0
:1030B8008F2422C0E0C082C083C007C006C005C0FC
:1030C80004C0D075D000AEBE7F00EE30E6F890DECA
:1030D80006E0FF7E00E5234207E52442068F238EA3
:1030E8002490DE02E0FDE4CDC4CD6DCD54F0CD6D6D
:1030F800FCED4207EC42068F238E2490DE04E07C30
:103108000025E0CCE4FD4207EC42068F23EEF524CF
:1031180030E11290F7CCE054FEF0AE2374FD552454
:10312800FF8E238F24758B00C2E8D0D0D004D00541
:10313800D006D007D083D082D0E032C0E0C007C02C
:1031480006C0D075D000AEBE7F00EE30E6F8C2AF44
:10315800AE897F00EE30E70375220353BEFC758904
:0F31680000C2C5D2AFD0D0D006D007D0E03222FF
:1048D5005344434376333730004348524F4E4F538A
:1048E5002072303533310000000000005253544E21
:1048F50000554E494D504C454D454E54454400528A
:10490500455345545F4E4F57001201000200000009
:1049150020501D47600101010203010A0600020043
:1049250000002001000902200001010080FA0904AD
:10493500000002FFFFFF0007058502400001070593
:104945000502400001040309040C035200660043FC
:1049550000610074001E034300680072006F006E62
:10496500006F007300200044006F006E0067006C4C
:104975000065000A03300030003000300012034D9E
:1049850000530046005400310030003000FD00FFA8
:1049950028000000000104000100000000000000E4
:1049A500000157494E555342000000000000000029
:0849B5000000000000000000FA
:10317700AF83E58290F7EEF0EFA3F090F7EEE0FE75
:10318700A3E0FF7C007D008E028F038A828B83E0A1
:10319700F9A3AA82AB83E960070CBC00EE0D80EBB4
:1031A7007532F08C338D348E358F367582FE021A68
:1031B700A8AF83E58290F7F0F0EFA3F090F7F0E087
:1031C700FEA3E0FF7C007D008E028F038A828B8343
:1031D700E493F9A3AA82AB83E960070CBC00ED0D69
:1031E70080EA8E358F367532F08C338D347582FEDA
:1031F700021AA8E58290F7F2F07535F27536F77581
:1032070032F17533017534007582FE021AA8AF8357
:10321700E58290F7F3F0EFA3F07535F37536F775A0
:1032270032F27533027534007582FE021AA8AF8236
:10323700AE83ADF0FC90F7F5EFF0EEA3F0EDA3F061
:10324700ECA3F07535F57536F77532F375330475FC
:0832570034007582FE021AA882
:0300E400750D0097
:10325F007EF97FF78FD575D4F97E017FF88FD375FF
:10326F00D20175150075161875170090F7F975F0DE
:10327F00000244707403B50D047582FF22850D8220
:10328F00050D2290DF46E0FFBFF00E90DF47E0FF15
:10329F00BF0D0690DF487469F0C2AF759A0075B81C
:1032AF000075A800121D8053BE7F75D69FC2900275
:1032BF000000221244E4AC82AD83AEF0FFC004C024
:1032CF0005C006C0079037BD75F086743D12436C7C
:1032DF00AC82AD83AEF0FFE58124FCF581E4C0E064
:1032EF00C0E074C0C0E07441C0E08C828D838EF06A
:1032FF00EF124604AC82AD83AEF0FFE58124FCF5FE
:10330F00818C828D838EF0EF1244F7AC82AD83AE49
:10331F00F090DF09EEF090DF0AEDF090DF0BECF0AC
:10332F002275E10490DF3BE0FFBF01F890FC1CE049
:10333F00F5E190FC1CE0FFBF04012290DF3BE0FFB2
:10334F00BF010280ED2290FC1CE0FFBF0201229022
:10335F00DF13E0FF74F05FF0E0FF43070F90DF1320
:10336F00EFF090FC1C7402F002381390FC1CE0FF8D
:10337F00BF03012290DF13E0FF74F05FF0E0FF7EE8
:10338F000043070A90DF13EFF090FC1C7403F0F575
:10339F00E190DF3BE0FFBF13F82290FC1CE0FFBF82
:1033AF0004012290DF13E0FF74F05FF05391EF758B
:1033BF00E10490DF3BE0FFBF01F8539BFC53E9EFC3
:1033CF0090FC1C7404F02290FC1FE4F0A3F090FC1E
:1033DF0012F0A3F090FC14F0A3F053C6C7759D0034
:1033EF00AE9E8E9EAE9E4306048E9EAEA98EA9AE55
:1033FF00B94306018EB990FC1C7404F07515007565
:10340F001600F51790F81275F00012447012195843
:10341F00D2A87591D175E900750E00AE9A7F004361
:10342F0006018E9A75E10490DF3BE0FFBF01F822A1
:10343F007E007F00C3EE94DCEF9405502490DF3CB8
:10344F00E0FD5450600490000122900032C007C08C
:10345F0006123EC6D006D00774322EFEE43FFF8020
:10346F00D390000022AF83E58290FC3CF0EFA3F0F5
:10347F0090FC3EE4F090DF02E0FF90DF3BE0FEBE09
:10348F00131EA290B3920290FC8EE0FEA202E433D0
:10349F005206EE24FF9290C007122F26D00780DA33
:1034AF00C29090FC8AE4F090FC38E0FDA3E0FE901F
:1034BF00FC80EDF0EEA3F090FC3AE0FBA3E0FC9073
:1034CF00FC86EBF0ECA3F090FC36E0F9A3E0FA9069
:1034DF00FC82E9F0EAA3F090FC84E9C39BF0EA9C3C
:1034EF00A3F090FC84E0FBA3E0FC8D158E168B827D
:1034FF008C83C007C006C005C002C00112454BAB8C
:10350F0082AC83D001D002D005D006D00790FC88C2
:10351F00EB29F0EC3AA3F0E94A7073C00790FC3C3A
:10352F00E0FBA3E0FC8B828C83E0F8880F75100022
:10353F0090FC36E50FF0E510A3F090DF04E0F87F84
:10354F0000740358F5118F12E4B51107B51204D0AA
:10355F00078020D0077401B5110614B5120280033D
:10356F0002363D90FC367401250FF0E43510A3F0C0
:10357F0002363D90FC3C74012BF0E43CA3F090FC30
:10358F0036E0FBA3E0FC90DF02EBF002363D90DF6C
:10359F0004E0FC5304037B00BC0005BB0002804920
:1035AF00BC0105BB0002800302363D90FC3CE0FBF2
:1035BF00A3E0FC90FC3FE9F0EAA3F090FC4174011A
:1035CF00F0E4A3F08B828C83C007C002C001123ECF
:1035DF0043D001D002D00790FC3CE0FBA3E0FC8974
:1035EF00008B828C83E8F08045ED4E603C90FC8828
:1035FF00E0FDA3E090DF02EDF090DF04E0FE74FC4D
:10360F005EF090FC88E0FDA3E0FEC374FF9DE49E96
:10361F00500F90DF04E0FE7D0043060290DF04EEC2
:10362F00F090FC8A7401F0800590DF02E9F0D2A8D7
:10363F0090FC8BE0FE7D0020E30302377790DF04E0
:10364F00E0FE5306037D00BE0109BD000690FC3E5F
:10365F007401F090FC3CE0FDA3E0FE90FC3EE0FC2A
:10366F002DFAE43EFB90FC36E0F8A3E0F990FC5D08
:10367F00E8F0E9A3F08A828B83C007C006C005C0BB
:10368F00041241A0AA82AB83D004D005D006D00784
:10369F0090FC8BE0F85300047900B8043FB9003C6C
:1036AF00C007EC2DF8E43EF990FC8BE0FF5307F0D8
:1036BF0090FC61E8F0E9A3F090FC63EAF0EBA3F073
:1036CF0090FC65EFF088828983C007C003C00212A7
:1036DF0041DAD002D003D007D0078036EC2DFDE4BD
:1036EF003EFE90FC8BE0FC5304F090FC68EDF0EE96
:1036FF00A3F090FC6AEAF0EBA3F090FC6CECF08D79
:10370F00828E83C007C003C002124223D002D003AF
:10371F00D00790FC3EE0603390FC8BE0FE5306F048
:10372F007D00BE5014BD001190FC3CE0FDA3E0FEF7
:10373F008D828E837410F0802F90FC3CE0FDA3E00F
:10374F00FE8A048D828E83ECF0801D90FC8BE0FE50
:10375F005306F07D00BE500BBD000890DF027410C1
:10376F00F0800590DF02EAF090FC3CE0FDA3E0FE64
:10377F0090FC18EDF0EEA3F090FC7EE4F0A3F07552
:10378F00E1037D607EEA90DF3BE0FCBC1302802FFB
:10379F001DBDFF011EED4E6026A290B3920290FC5C
:1037AF008EE0FCA202E4335204EC24FF9290C00797
:1037BF00C006C005122F26D005D006D00780C790AF
:1037CF00FC8EE0FC1392029290ED4E700690FC4638
:1037DF007413F090DF3BE0FEBE131EA290B3920273
:1037EF0090FC8EE0FEA202E4335206EE24FF92908C
:1037FF00C007122F26D00780DAC29090DF02EFF0B9
:10380F0075820122D2A875150075160075170290E2
:10381F00F81275F00012447090FC12E4F0A3F090CF
:10382F00FC14F0A3F090FC16F090FC1704F090F845
:10383F0011E4F0539BFC53E9EF75E10290DF3BE09D
:10384F00FFBF0DF8AE914306108E912290FC8D7440
:10385F0001F02290FC8DE4F022C021C0E0C0F0C046
:10386F0082C083C007C006C005C004C003C002C029
:10387F0001C000C0D075D00090FC457411F0C28912
:10388F0090DF3BE0FFBF0D0280030239BA90FC8E40
:10389F00E0139203929090FC77E0FF602A90FC78FF
:1038AF00E0FEA3E0FF90FC78E024FFFCA3E034FFF0
:1038BF00FD90FC78ECF0EDA3F074FF2F400990DF42
:1038CF0004E0FF74FC5FF090FC1C7402F090F811A0
:1038DF00E07E0025E0CEE42412FFEE34F8FEE07522
:1038EF00F002A42412FC74FC35F0FD8C828D83E071
:1038FF00FAA3E0FB74012AF8E43BF98C828D83E88C
:10390F00F0E9A3F0EA2FF582EB3EF583E5D9F090CD
:10391F00F811E075F002A42412F58274FC35F0F56D
:10392F0083E0FEA3E0FFC39402501A90F811E075F4
:10393F00F002A42412F58274FC35F0F583E0FEA3A7
:10394F00E0FF4E701A90F811E0FF75F002A42412F8
:10395F00F58274FC35F0F58374FFF07401A3F090D9
:10396F00FC78E0FEA3E0FF4E6003023B7090FC7713
:10397F00E0FF7003023B7090FC7AE0FEA3E0FF9043
:10398F00FC78EEF0EFA3F090FC78E0FEA3E090DF80
:10399F0002EEF090DF04E0FF74FC5FF0E0FF7E00CA
:1039AF0043070290DF04EFF0023B7090DF3BE0FF34
:1039BF00BF13028003023B7090FC8AE0FF7003028A
:1039CF003B0190FC2EE0FEA3E0FF0EBE00010F9026
:1039DF00FC2EEEF0EFA3F090FC7EE0FEA3E0FF9054
:1039EF00FC82E0FCA3E0FDEEB50406EFB505028016
:1039FF0003023AD490FC80E0FEA3E0FF4E603790C4
:103A0F00FC80E0FEA3E0FFBEFF05BF000280149024
:103A1F00FC80E024FFFEA3E034FFFF90FC80EEF07B
:103A2F00EFA3F090FC86E0FEA3E0FF90FC7EEEF0AB
:103A3F00EFA3F0023AD490FC7CE0FF90FC82E0F51B
:103A4F0015A3E0F5167E008F828E8312454BAE8252
:103A5F00AF8390FC18E0FCA3E0FDEE2CF582EF3D68
:103A6F00F583E4F090FC7CE02401F0E0FF90FC7D16
:103A7F00E0FEEFB5060590FC7CE4F090FC7CE0FFE7
:103A8F0090FC82E0F515A3E0F5167E008F828E8301
:103A9F0012454BAE82AF8390FC18E0FCA3E0FDEE25
:103AAF002CFEEF3DFF8E828F83E0701090FC21E49F
:103ABF00F090FC467412F0123330C29090FC7E747A
:103ACF0001F0E4A3F090FC88E0FEA3E0FF90FC88F7
:103ADF00E024FFFCA3E034FFFD90FC88ECF0EDA3A5
:103AEF00F0BEFF22BF001F90DF04E0FF74FC5FF009
:103AFF00801490FC88E024FFFEA3E034FFFF90FCCD
:103B0F0088EEF0EFA3F090FC1C7403F090FC7CE0C7
:103B1F00FF90FC82E0F515A3E0F5167E008F828EF4
:103B2F008312454BAE82AF8390FC7EE0FCA3E0FD99
:103B3F0090FC7EE02401F0A3E03400F0EC2EFEEDCB
:103B4F003FFF90FC18E0FCA3E0FDEE2CF582EF3D6B
:103B5F00F583E0F5D990FC1AE02401F0A3E03400DE
:103B6F00F0D0D0D000D001D002D003D004D005D0F7
:103B7F0006D007D083D082D0F0D0E0D02132C02140
:103B8F00C0E0C0F0C082C083C007C006C005C0043B
:103B9F00C003C002C001C000C0D075D000751300B3
:103BAF0090FC457410F0539BFCE5E9420EADE97EA5
:103BBF0000ED30E01C90FC1DE0FDA3E08D067D00C4
:103BCF00AB9C7C0090FC1FED4BF0EE4CA3F053E947
:103BDF00FEE5E954707003023DA890FC1CE0FEBEA8
:103BEF000306530E8F023DA590F811E0FEB40100BD
:103BFF009204E433FD7E002416F582EE34FCF58347
:103C0F00E0FEBE01028003023D5C90FC8BE0FE7D76
:103C1F000020E103023D2F90DF04E0FE5306037DF9
:103C2F0000BE0106BD000375130190FC8BE0FE532F
:103C3F0006017D00BE0177BD007490F811E07D0094
:103C4F0025E0CDE42412FEED34F8FDAB137C00EB40
:103C5F002EFEEC3DFDE0F97A0029CAE42412F9EAC0
:103C6F0034F8FAEB29FBEC3AFCE075F002A42412CD
:103C7F00F58274FC35F0F583E0F9A3E0FAA8137F21
:103C8F0000E9C398F9EA9FFA90FC8BE0FF5307F025
:103C9F0090FC61EBF0ECA3F090FC63E9F0EAA3F089
:103CAF0090FC65EFF08E828D831241DA807290F86E
:103CBF0011E07E0025E0CEE42412FFEE34F8FEACD6
:103CCF00137D00EC2FFFED3EFEE07A0025E0CAE405
:103CDF002412FBEA34F8FAEC2BFCED3AFDE075F018
:103CEF0002A42412F58274FC35F0F583E0FAA3E008
:103CFF00FBA8137900EAC398FAEB99FB90FC8BE0D1
:103D0F00F95301F090FC68ECF0EDA3F090FC6AEA37
:103D1F00F0EBA3F090FC6CE9F08F828E83124223BC
:103D2F0090F811E0FF7E0063070190F811EFF0E0CB
:103D3F00FF75F002A42412F58274FC35F0F583E4CC
:103D4F00F0A3F090FC16F090FC17F0804790FC4623
:103D5F007412F0A290B3920490FC8EE0FFA204E4E0
:103D6F00335207EF24FF929090F811E075F002A400
:103D7F002412F58274FC35F0F583E4F0A3F0A290E1
:103D8F00B3920490FC8EE0FFA204E433FE5207EFDF
:103D9F0024FF9290C29053E9CFAEE97F00EE30E658
:103DAF003790FC467410F0A290B3920490FC8EE012
:103DBF00FFA204E4335207EF24FF9290123330A294
:103DCF0090B3920490FC8EE0FFA204E433FE5207FE
:103DDF00EF24FF929053E9BFAEE97F00EE30E73753
:103DEF0090FC467411F0A290B3920490FC8EE0FF09
:103DFF00A204E4335207EF24FF9290123330A290C3
:103E0F00B3920490FC8EE0FFA204E433FE5207EF5E
:103E1F0024FF929053E97FD0D0D000D001D002D0B0
:103E2F0003D004D005D006D007D083D082D0F0D0F5
:103E3F00E0D02132AF83E58290FC43F0EFA3F09006
:103E4F00FC41E0FEA3E0FF90FC43E0FCA3E0FD900B
:103E5F00FC3FE0FAA3E0FB8A008B011ABAFF011BBB
:103E6F00E8496024EE2AF8EF3BF9E82CF8E93DF930
:103E7F00EA2CF582EB3DF583C006C007E088828906
:093E8F0083F0D007D00680CF2299
:1049BD0000000000000001000000000000000000E9
:0749CD0000000000000000E3
:103E9800AE82AF831EBEFF011FC3E49E74808FF005
:103EA80063F08095F050167C4C7D04EC24FFFAED0D
:103EB80034FFFB8A048B05EA4B70F080D722AE8270
:103EC800AF83EE2EFEEF33FF1EBEFF011FC3E49E3D
:103ED80074808FF063F08095F040ED22AE82AF835E
:103EE800D2909003E8C007C006123E98C290900195
:103EF800F4123E98D006D007EE30E020900019C0AA
:103F080007C006123E98D290900226123E98C290A0
:103F1800900019123E98D006D007801E900113C059
:103F280007C006123E98D290900032123E98C29076
:103F3800900113123E98D006D007EFC313CE13CECC
:103F4800FF80B5AFF0AE83E58290FC4EF0EEA3F0B3
:103F5800EFA3F090FC4EE0FDA3E0FEA3E0FF90FC91
:103F68004BE0FAA3E0FBA3E0FCA815A916E849601A
:103F78004DC000C0018D828E838FF01246C7F98A2A
:103F8800828B838CF01246C7F8E9C398F98917D059
:103F980001D000600D8517187519008518828519DC
:103FA80083220DBD00010E90FC4EEDF0EEA3F0EF64
:103FB800A3F00ABA00010B18B8FF011980AF9000EE
:103FC800002253BEFBAEBE7F00EE30E6F874B85553
:103FD800C6FF7E008FC6AEC67F00EE20E6F8AEBEF6
:103FE8007F004306048EBEAEBE7F00EE30E6F85377
:103FF800C6C743E40CAEE44306018EE4D2B922AE50
:10400800FE4306038EFEC29022C0E0C082C083C079
:10401800D090FC47E02401F0A3E03400F0A3E034A2
:1040280000F0A3E03400F0D0D0D083D082D0E032CA
:0149D40001E1
:10403800123283AF8290FC55EFF08F068EF005F0B8
:104048007401800225E0D5F0FB90FC56F0EF75F086
:1040580008A424F9FE74F735F0FF90FC51EEF0EF58
:10406800A3F08E828F83A3A374DFF08E828F83A345
:10407800A3A374B1F08E828F83A3A3A3A3A3741008
:10408800F074062EF582E43FF583E054E0441DF019
:1040980074072EF582E43FF583E0543F4440F07402
:1040A800072EF582E43FF583E054FC4401F0123218
:1040B80083AF8290FC57EFF08F068EF005F0740105
:1040C800800225E0D5F0FB90FC58F0EF75F008A4CD
:1040D80024F9FE74F735F0FF90FC53EEF0EFA3F0EF
:1040E8008E828F8374DFF08E828F83A374B2F08EFA
:1040F800828F83A3A3A3A3A37410F074062EF58262
:10410800E43FF583E054E0441EF074072EF582E4A2
:104118003FF583E054CF4410F074072EF582E43F56
:10412800F583E054FC4401F0AEA94306108EA9AE15
:10413800B94306108EB922AF83E58290FC5BF0EF9D
:10414800A3F0AEB37F00EE30E3F890FC51E0FEA39D
:10415800E0FF90FC5BE0FCA3E0FD8C028D038B028A
:104168008E828F83EAF090FC51E0FEA3E0FF8E82FE
:104178008F83A3ECF090FC56E0FF42D60090FC5AE7
:10418800E0FF90FC59E042077E004307018FB3AE81
:10419800B37F00EE30E3F822AF83E58290FC5FF056
:1041A800EFA3F090FC5FE0FEA3E0FF90FC5DE0FC75
:1041B800A3E0FDEC540F60158C028D030CBC0001CC
:1041C8000DEA2EF582EB3FF583E4F080E68C828DD4
:1041D8008322AF83E58290FC66F0EFA3F090FC6643
:1041E800E0FEA3E0FF90FC61E0FCA3E0FD90FC632F
:1041F800E0FAA3E0FB90FC65E0F990FC6FECF0EDD1
:10420800A3F090FC71EAF0EBA3F090FC73E4F0905B
:10421800FC74E9F08E828F8302426DAF83E5829051
:10422800FC6DF0EFA3F090FC6DE0FEA3E0FF90FCC6
:1042380068E0FCA3E0FD90FC6AE0FAA3E0FB90FCD8
:104248006CE0F990FC6FECF0EDA3F090FC71EAF0F3
:10425800EBA3F090FC737402F090FC74E9F08E828A
:104268008F8302426DAF83E58290FC75F0EFA3F077
:10427800AEB37F00EE30E3F890FC75E0FEA3E0FFFC
:1042880090FC6FE0F51BA3E0F51C90FC74E0FB7458
:10429800505BF51A90FC73E0F94203740149F51973
:1042A80090FC71E0F515A3E0F516E4F517F518C3D1
:1042B800E5179515E5189516400122C00390FC51A5
:1042C800E0F8A3E0FBE5172EF9E5183FFA89048A20
:1042D800058D0488828B83ECF090FC51E0FCA3E010
:1042E800FD8C828D83A3E9F090FC53E0FCA3E0FDF4
:1042F8008C828D83A3A3E517251BFCE518351CFDCF
:104308008C028D038B02EAF090FC53E0FAA3E0FBE9
:104318008A828B83A3A3A3ECF090FC56E0FD90FC6B
:1043280058E0FC4D42D60000D003E51A6017E515A9
:1043380024F0FCE51634FFFDECB51709EDB51805BA
:104348008519B380098B047D004304018CB3ACB399
:104358007D00EC30E3F874102517F517E43518F5EF
:10436800180242B712440FBC00030245D6EF60FAA8
:1043780030D502B2D1E583B4FF030245ECE582B43F
:10438800FF030245EC258340072482400B0245D6F3
:1043980024831450030245ECF582EA8DF0A4A8F0BA
:1043A800EA8EF0A428F8E435F0F9EB8DF0A428E9BA
:1043B80035F0F9E433CA8FF0A429F9EA35F0FAEBBD
:1043C800F88EF0A429F9EA35F0FAE433FBEC8DF025
:1043D800A429F9EA35F0FAE43BFBE88FF0A42AFABD
:1043E800EB35F0FBE433CCFD8EF0A42AFAEB35F084
:1043F800FBE43CFCED8FF0A42BFBEC35F0FC20E754
:104408000312443D0245B5AA82AB83A2F73392D189
:10441800F5826002D2F7ACF0E58124F9F8E6FD08F0
:10442800E6FE0886F008E6A2F73392D5F583600227
:05443800D2F7AFF022F5
:0600BA00E478FFF6D8FD1A
:10443D007804EC7011E58224F8500AF582E4C9CABB
:10444D00CBFCD8EF22EC7820058220E713D5820132
:10445D0022C3E933F9EA33FAEB33FBEC33FCD8EA48
:10446D00158222AC82AD83AE16AF17BE0004EF608D
:10447D000C1F0FE515124530A3DEFADFF88C828D87
:10448D008322AD82AE83AFF08D1A8E1B8F1C8515E6
:10449D001D85161E85171FA818A9198803890418CC
:1044AD00B8FF0119EB4C6025851D82851E83851F84
:1044BD00F01246C7FCA385821D85831E8D828E83D7
:1044CD008FF0EC124530A3AD82AE8380CE851A827B
:0744DD00851B83851CF02202
:100098007918E94400601B7A019049BD7877759317
:1000A800FCE493F2A308B800020593D9F4DAF275D8
:0200B80093FFB4
:1044E400FCABF0AA83A982749EC2D1F58212443D2A
:1044F4000245B57F9E12451E30D1030245D6C3EF57
:104504009582500974FFF5F0F583F5822279001243
:1045140046E389828A838BF0EC22AA82AB83A2F7DA
:104524003392D1F5826002D2F7ACF02220F7113039
:10453400F6138883A88220F509F6A88375830022E0
:1045440080FEF280F5F022E5828515F0A4C582C0D4
:10455400F08516F0A4D0F025F0C5838515F0A425C8
:1045640083F58322E515451660467A01E51525E0B5
:10457400F515E516334012F516E5829515E5839594
:104584001640030A80E6C3E51613F516E51513F580
:1045940015C3E5829515F5F0E58395164005F58379
:1045A40085F082C3E51613F516E51513F515DAE162
:0145B40022E4
:1000C0007800E84400600A79007593F0E4F309D8F9
:1000D000FC7877E8440C600C790D90F000E4F0A314
:0400E000D8FCD9FA75
:02008900E4731E
:1045B500B98003EA13B34010EA2401FAE43BFBE4B3
:1045C5003CFC50047C800582BC000EBB000BBA008D
:1045D50008E4F5F0F583F58222A2D1E582138CF08B
:1045E50092F78B838A8222E4F583F58275F080F455
:1045F500A2D11322E4F583F58275F0C0747F2212EF
:10460500440F30D502B2D1BF0009BC00030245F901
:104615000245ECBC00030245D6E583B4FF0BE582F9
:10462500B4FF030245F90245D6E582B4FF0302450E
:10463500ECC395835007247F400B0245D624801494
:1046450050030245ECF582C3ED9AEE9BEF9C4011B9
:104655001582C3EA33F9EB33FAEC33FBE433FC8020
:1046650005E4CCCBCAF9C08275F019C3E99DEA9E71
:10467500EB9FEC9400D5F002802D400EE99DF9EA00
:104685009EFAEB9FFBEC9400FCC3B3E833F8E5829C
:1046950033F582E58333F583C3E933F9EA33FAEB7E
:1046A50033FBEC33FC80C4B3E4F938FAE43582FB20
:1046B500E43583FCD082500405827C8012443D029F
:0246C50045CDE1
:0D008B00758150124726E582600302008651
:1046C70020F71430F6148883A88220F507E6A8831C
:1046D70075830022E280F7E49322E0226040F82508
:1046E70082500274FFF582E824F8501ECCCBCAF939
:1046F700E4CC24F85014CBCAF9E4CB24F8500BCA05
:10470700F9E4CA24F8500379002224086010F8C39A
:10471700EC13FCEB13FBEA13FAE913F9D8F1227552
:03472700820022EB
:00000001FF
